:020000040800F2
:10000000D847002021D80008B10100082BD80008EB
:10001000B3010008B7010008BB01000800000000A0
:10002000000000000000000000000000BF01000808
:10003000C10100080000000037D80008C301000813
:100040003BD800083BD800083BD800083BD8000844
:100050003BD800083BD800083BD800083BD8000834
:100060003BD800083BD800083BD800083BD8000824
:100070003BD800083BD800083BD800083BD8000814
:100080003BD800083BD800083BD800083BD8000804
:100090003BD800083BD800083BD800083BD80008F4
:1000A0003BD800083BD800083BD800083BD80008E4
:1000B0003BD80008D5010008DD0100083BD8000846
:1000C0003BD800083BD800083BD800083BD80008C4
:1000D0003BD800083B930008E5010008ED0100084B
:1000E0003BD800083BD800083BD800083BD80008A4
:1000F0003BD800083BD800083BD800083BD8000894
:100100003BD800083BD800083BD800083BD8000883
:100110003BD80008F50100083BD800083BD8000890
:100120003BD800083BD800083BD800083BD8000863
:100130003BD800083BD800083BD800083BD8000853
:100140003BD800083BD800083BD80008C1A20008F3
:100150003BD800083BD800083BD800083BD8000833
:100160003BD800083BD800083BD800083BD8000823
:100170003BD800083BD800083BD800083BD8000813
:100180003BD800083BD80008DFF80CD011F06EFB1C
:10019000004800479D010008D847002000F021F9E1
:1001A0000249087001E000F0C6F8FCE700000020FA
:1001B000704700BFFEE700BFFEE700BFFEE77047E5
:1001C000704710B50D480068401C0C49086006F0E7
:1001D00035FD10BD10B506F026FF10BD10B507F0B7
:1001E0002CF810BD10B508F0D9FE10BD10B509F0FF
:1001F000C5F910BD10B508F0ACFF10BD5C050020BE
:100200006E48C089401C6D49C88108468088401CE2
:1002100000B288800846C088401C00B2C8800846EA
:100220000089401C00B2088108464089401C00B289
:10023000488108468089401C00B2888108460078C1
:10024000012804D108464078401C487002E0012093
:100250005A490870704710B5012006F02EFD03F0D2
:1002600066FB10BD10B52DED028B002006F025FDBC
:1002700000EE100AB8EE400ADFED510A80EE201AB7
:10028000B0EE418A07F06AFCB0EE480A07F0F0FED3
:100290004C48D0ED063AB0EE633AD0ED053AF0EEB8
:1002A000632AD0ED043AB0EE632AD0ED0C3AF0EEBA
:1002B000631AD0ED0B3AB0EE631AD0ED0A3AF0EEC5
:1002C000630AF6EE003A68EE233AB0EE630A3E4A5D
:1002D0003E493F4801F04AFCB0EE480A01F09BF865
:1002E0003C48B0EE480A04F0F2FDBDEC028B10BDB4
:1002F00010B52DED028B022006F0DFFC00EE100A97
:10030000B8EE400ADFED2E0A80EE201AB0EE418AE8
:10031000B0EE480A00F09EFBBDEC028B10BD10B59C
:1003200008F026FB10BD10B500F054FB10BD10B551
:100330000AF03CFD10BD10B52048007801283BD1E3
:100340002548008800B225490880FFF784FF1B4834
:10035000B0F90400022804DB002018498880FFF768
:1003600081FF1648B0F90600052804DB0020134978
:10037000C880FFF7BDFF1148B0F908000A2804DB68
:1003800000200E490881FFF7CAFF0C48B0F90A00A7
:10039000142804DB002009494881FFF7C4FF0748FF
:1003A000B0F90C00322804DB002004498881FFF7F3
:1003B000BEFF00200149087010BD000004070020A6
:1003C00000247449B83300202400002020000020BD
:1003D0001C000020A83300206C0500200200002033
:1003E000704710B54FF480600AF022FE06F0C4FB9F
:1003F00007F0F5F906F0BAFC4FF4C87007F01AF8E8
:100400004FF4C87006F00EFC142007F089FC08F0C9
:10041000B5FA4FF4E13008F01BFD4FF4E13008F07D
:10042000E5FE00F037FA642006F0FCFB4FF4E13003
:1004300008F0FBFF0AF0B4FC08F06EF880F0010051
:100440000249087006F074FC012010BDE005002090
:1004500038B50122F7A1F8480FF0F4FB0446C4B107
:1004600000221146F3A010F0E6FB044614B14FF051
:10047000FF3038BD0022EFA1EF480FF0E3FB044648
:100480003CB10022EBA110460FF0DCFB6FF0010045
:10049000EFE7EAA1EA4810F08CF804463CB10022EC
:1004A000E4A110460FF0CEFB6FF00200E1E701225D
:1004B000E4A1E7480FF0F1FB04463CB10022DDA1C6
:1004C00010460FF0BFFB6FF00300D2E76B464022EF
:1004D000E049DF480FF093FC0446009878B3DC480D
:1004E0000FF0ECFE0122DCA1D9480FF0D6FB044648
:1004F0003CB10022CFA110460FF0A4FB6FF0030027
:10050000B7E76B46C022D649D1480FF078FC0446C5
:10051000009848B1CE480FF0D1FE0022C5A1104688
:100520000FF090FB0120A4E7C9480FF0C7FE00229E
:10053000C0A110460FF086FB6FF0030099E7FFE7BC
:10054000C3480FF0BBFE0022BAA110460FF07AFBA1
:100550006FF004008DE738B50022B6A1B6480FF061
:1005600071FB0446C4B100221146B2A010F063FB37
:10057000044614B14FF0FF3038BD0022ADA1AE48A3
:100580000FF060FB04463CB10022AAA110460FF018
:1005900059FB6FF00100EFE7A8A1A94810F009F896
:1005A00004463CB10022A3A110460FF04BFB6FF0B4
:1005B0000200E1E70A22A3A1A5480FF06EFB044662
:1005C0003CB100229BA110460FF03CFB6FF00300F2
:1005D000D2E76B4640229F499D480FF009FD044633
:1005E00074BB9B480FF06AFE0A229BA198480FF04B
:1005F00054FB04463CB100228EA110460FF022FBB2
:100600006FF00300B8E76B46C022954990480FF0A1
:10061000EFFC04464CB98E480FF050FE002285A135
:1006200010460FF00FFB0120A6E789480FF046FEA9
:10063000002280A110460FF005FB6FF003009BE73E
:1006400083480FF03BFE00227AA110460FF0FAFA21
:100650006FF0040090E710B582487E4BD3E900218B
:100660009B68C0E90E1342637A4BD3E903215B69AF
:10067000C0E9111302647C48764B18330ECB083066
:100680000EC0784A734B24330BCB58320BC27148DF
:1006900090ED0D0A734880ED190A6E4890ED0E0A30
:1006A000704880ED1A0A71486D4C1ECC54301EC043
:1006B00064386B49D1E905340A69C969C0E91A345B
:1006C00042660167664BD3E909141A6ADB6AC0E91E
:1006D0001F43C0E91D216648614BD3E90C41D3E9B2
:1006E0000E23C0E91541C0E917235D49D1E9114343
:1006F0000A6CC96CC0E91A43426601675849D1E9DE
:100700001434D1E91621C0E91D34C0E91F2110BD00
:1007100010B500F08DF905F0F5F910BD10B59FED9D
:10072000550A4F4880ED040A9FED520A80ED000AF9
:10073000B7EE000A80ED080A9FED4F0A80ED060A29
:100740009FED4D0A80ED020A9FED4B0A80ED0A0AEB
:100750009FED4A0A80ED050A9FED480A80ED010AE7
:10076000B0EE000A80ED090AB7EE000A80ED070A34
:10077000B7EE000A80ED030AB7EE000A80ED0B0A1F
:10078000B6EE000A80ED100AB6EE000A80ED0C0A03
:100790009FED3B0A80ED140A9FED3A0A80ED120AA4
:1007A0009FED380A80ED0E0A9FED360A80ED160A9D
:1007B0009FED350A80ED110A9FED330A80ED0D0A99
:1007C0009FED2D0A80ED150AB7EE000A80ED200A94
:1007D000B7EE000A80ED220AB7EE000A80ED210A8A
:1007E000B7EE000A80ED240AB7EE000A80ED260A73
:1007F000B7EE000A80ED250A9FED240A80ED180A65
:10080000B7EE000A80ED1A0AB7EE000A80ED190A69
:10081000B1EE040A80ED1C0A9FED1D0A80ED1E0A50
:10082000B6EE000A80ED1D0AFFF715FFFFF770FF17
:1008300010BD0000303A0000140800202F00000016
:100840006C28002073656E736F722E62696E0000F3
:1008500044180020140700207069642E62696E003D
:1008600054070020B8330020B40500208828002059
:100870004C2900209A99193FCDCCCC3DCDCC0C40D1
:10088000CDCC4C3FCDCC4C3D9A99993E6666E63F27
:100890008FC2F53C10B5012259495A480AF09FFB16
:1008A00057480078012809D14022574957480AF093
:1008B00096FB4FF4007156480BF046F9FFF72EFFF8
:1008C000FFF7C9FEFFF724FF10BD10B504465148DD
:1008D00094E80E0034300EC04B4894E80E000EC071
:1008E0004C4890ED190A484880ED0D0AFFF733FE99
:1008F00010BD10B50446474894E80E0040300EC0C5
:10090000414894E80E000C300EC0424890ED1A0A9F
:100910003D4880ED0E0AFFF71EFE10BD10B50446DF
:100920003D4894E80E0008300EC0374894E80E00A9
:1009300018300EC0FFF70FFE10BD10B50446354845
:1009400094E80E0058300EC02F4894E80E00243072
:100950000EC0FFF700FE10BD10B530483049D1E998
:1009600016344A6D096E80E81C00C16001462C48AF
:10097000D0E91A34426E006FC1E905340A61C861DA
:100980002748D0E91E34426FD0F88000C1E909340D
:100990000A62C8620A46234CD4E91530D4E9171418
:1009A000C2E90E14C2E90C3010461E49D1E91942C1
:1009B000D1E91B31C0E91042C0E912311949D1E92E
:1009C0001D42D1E91F31C0E91442C0E91631FFF7D9
:1009D000C2FD10BD10B51448008820B1124800882F
:1009E000401C11490880104800883C2807DD002081
:1009F0000D4908800D48007808B9FFF7ADFF10BD1C
:100A0000050000200000040814070020000006086C
:100A100000040240B8330020B40500205407002031
:100A2000882800204C29002068040020C8040020E9
:100A3000B7EE000AFC4880ED180AB7EE000A80ED18
:100A40001C0AB7EE000A80ED200A9FEDF80A80ED3F
:100A5000300A704710B52DED0E8BB0EE408AF44889
:100A6000D0ED000AB0EE600AB7EE001AF1EE040A0B
:100A700001F0F5FFDFEDEF0A80EE201AB3EE0E0A6B
:100A800021EE000AEC4880ED000AE948D0ED010AA9
:100A9000F1EE600AB0EE600AB7EE001AF1EE040A59
:100AA00001F0DDFFDFEDE30A80EE201AB3EE0E0A5F
:100AB00021EE000AE04880ED010AE048007818BB0A
:100AC000DB48D0ED030AB0EE600AB1EE041ADFEDA8
:100AD000DC0A01F0DFFFDFEDD70A80EE201A9FED80
:100AE000D90A21EE000ABDEEC00A10EE100A00B2CB
:100AF00000EE100AF8EEC00ACF4890ED020A00EEB0
:100B0000880A80ED020A36E0CB4890ED020ACE4812
:100B1000D0ED000A30EEC00A10EE101A084610F0B0
:100B200022FD41EC1C0B18EE100A10F01CFD41ECEC
:100B30001E0B9FEDC60B53EC102B10F091FC41ECFB
:100B40001D0B53EC1C2B10F08BFC41EC1A0BBA481C
:100B500090ED020A10EE101A084610F004FD41EC68
:100B60001B0B53EC1A2B10F0D4FB41EC190B10F0BB
:100B70003DFDB1498860B048D0ED020AB0EE600A90
:100B800001F0D6FFAC4880ED020AB248D0ED000A71
:100B9000A94890ED001A70EE810AAF4890ED001A56
:100BA00070EEC10AB0EE600A01F0C2FFAB4880ED02
:100BB000000AA848D0ED010A9F4890ED011A70EE96
:100BC000810AA74890ED001A70EEC10AB0EE600AE3
:100BD00001F0AEFFA14880ED010A9E48D0ED020A67
:100BE000954890ED021A70EE810A974890ED001A30
:100BF00070EEC10AB0EE600A01F09AFF974880EDEE
:100C0000020A90ED000AB5EEC00AF1EE10FA02DD1C
:100C100090ED000A04E0914890ED000AB1EE400A20
:100C2000F3EE0E0A80EE201A8C4880ED2D1A90ED1E
:100C3000010AB5EEC00AF1EE10FA02DD90ED010AEC
:100C400004E0864890ED010AB1EE400AF3EE0E0A88
:100C500080EE201A814880ED2E1A90ED020AB5EE42
:100C6000C00AF1EE10FA02DD90ED020A04E07B48C2
:100C700090ED020AB1EE400AF3EE0E0A80EE201A61
:100C8000764880ED2F1ADFED770A80EE880AD0EDE6
:100C9000000A90ED031A70EEC10A90ED161AF2EEFA
:100CA000041A21EE211A60EE810A20EE200A80ED5E
:100CB0000C0ADFED6C0A80EE880AD0ED010A90ED97
:100CC000041A70EEC10A90ED1A1AF2EE041A21EE1F
:100CD000211A60EE810A20EE200A80ED0D0ADFED78
:100CE000610A80EE880AD0ED020A90ED051A70EED6
:100CF000C10A90ED1E1AF2EE041A21EE211A60EEDE
:100D0000810A20EE200A80ED0E0A90ED170AD0ED40
:100D1000000A60EE200A90ED060A00EE880A80EDD7
:100D2000060A90ED1B0AD0ED010A60EE200A90ED54
:100D3000070A00EE880A80ED070A90ED1F0AD0ED41
:100D4000020A60EE200A90ED080A00EE880A80EDA3
:100D5000080A454890ED000AF6EE000A20EE200A47
:100D6000F3EE0E0A20EE200A3C4880ED090A3E48C8
:100D700090ED000AF6EE000A20EE200AF3EE0E0ACD
:100D800020EE200A354880ED0A0A374890ED000A27
:100D9000F6EE000A20EE200AF3EE0E0A20EE200AFC
:100DA0002E4880ED0B0A90ED060AD0ED090AF1EE0F
:100DB000600AB4EEE00AF1EE10FA04D290ED090AEE
:100DC000B1EE400A0FE0254890ED060AD0ED090A81
:100DD000B4EEE00AF1EE10FA02DD90ED090A02E04D
:100DE0001E4890ED060A1D4880ED060A90ED070AA0
:100DF000D0ED0A0AF1EE600AB4EEE00AF1EE10FA64
:100E000004D290ED0A0AB1EE400A32E0134890EDA8
:100E1000070AD0ED0A0AB4EEE00AF1EE10FA25DD79
:100E200090ED0A0A25E0000088280020CDCC4C3E39
:100E30002C2C00200000FA43102A00200C00002077
:100E40000000000000001643240000201F85EB5125
:100E5000B81E09401C2A00201C0000204C2900203C
:100E6000200000200AD7A33B10000020FE4890ED90
:100E7000070AFD4880ED070A90ED080AD0ED0B0A3D
:100E8000F1EE600AB4EEE00AF1EE10FA04D290ED51
:100E90000B0AB1EE400A0FE0F34890ED080AD0EDDE
:100EA0000B0AB4EEE00AF1EE10FA02DD90ED0B0A47
:100EB00002E0ED4890ED080AEB4880ED080A90ED5D
:100EC000000A80ED030A90ED010A80ED040A90ED1E
:100ED000020A80ED050A90ED000ADFEDE40AB4EEA7
:100EE000E00AF1EE10FA02D29FEDE00A0FE0DE48D0
:100EF00090ED000ADFEDDE0AB4EEE00AF1EE10FA42
:100F000002DD9FEDDB0A02E0D74890ED000AD648EB
:100F100080ED000A90ED010ADFEDD40AB4EEE00A9C
:100F2000F1EE10FA02D29FEDD10A0FE0CE4890ED1B
:100F3000010ADFEDCF0AB4EEE00AF1EE10FA02DDAD
:100F40009FEDCB0A02E0C84890ED010AC64880ED4B
:100F5000010A90ED020ADFEDC50AB4EEE00AF1EEF7
:100F600010FA02D29FEDC10A0FE0BF4890ED020ACD
:100F7000DFEDBF0AB4EEE00AF1EE10FA02DD9FEDFC
:100F8000BC0A02E0B84890ED020AB74880ED020AB8
:100F900090ED000AD0ED0C0A30EE200AD0ED060AE2
:100FA00030EE200AD0ED150A20EE200A80ED120A5C
:100FB00090ED010AD0ED0D0A30EE200AD0ED070ABF
:100FC00030EE200AD0ED190A20EE200A80ED130A37
:100FD00090ED020AD0ED0E0A30EE200AD0ED080A9C
:100FE00030EE200AD0ED1D0A20EE200A80ED140A12
:100FF000BDEC0E8B10BD10B52DED048B8AB0F0EE5C
:10100000408AB0EE609AB0EE418A9FED9A0AB4EE43
:10101000C08AF1EE10FA02D29FED960A0BE09FED26
:10102000960AB4EEC08AF1EE10FA02DD9FED920A44
:1010300001E0B0EE480AB0EE408AB1EE680A30EE48
:10104000090A30EE080A8DED040A38EE890A30EEFE
:10105000480A8DED050A38EEC90A30EE080A8DED12
:10106000060AB1EE680A30EE490A30EE480A8DED04
:10107000070A002429E004A800EB840090ED000A90
:10108000DFED7E0AB4EEE00AF1EE10FA02D29FED37
:101090007B0A13E004A800EB840090ED000ADFED6A
:1010A000780AB4EEE00AF1EE10FA02DD9FED740A60
:1010B00004E004A800EB840090ED000A04A800EB13
:1010C000840080ED000A601CC4B2042CD3DB9DEDCB
:1010D000040A8DED000A9DED050A8DED010A9DEDD6
:1010E000060A8DED020A9DED070A8DED030ADDED7E
:1010F000000A644890ED000A634890ED001A01EE82
:10110000200A624880ED000ADDED010A5D4890ED9D
:10111000000A5D4890ED001A01EE200A5B4880ED60
:10112000010ADDED020A574890ED000A564890ED9D
:10113000001A01EE200A554880ED020ADDED030A8F
:10114000504890ED000A504890ED001A01EE200A38
:101150004E4880ED030A4E48007800285FD04D4885
:10116000007870BB002429E0484800EB840090ED33
:10117000000ADFED490AB4EEE00AF1EE10FA02D2FD
:101180009FED450A13E0414800EB840090ED000A12
:10119000DFED3B0AB4EEE00AF1EE10FA02DD9FED5E
:1011A000380A04E0394800EB840090ED000A374823
:1011B00000EB840080ED000A601CC4B2042CD3DB79
:1011C0003AE0FFE7002427E0304800EB840090ED90
:1011D000000AB5EEC00AF1EE10FA02D21FEDE80ADD
:1011E00013E02A4800EB840090ED000ADFED240AAA
:1011F000B4EEE00AF1EE10FA02DD9FED210A04E000
:10120000224800EB840090ED000A204800EB8400A7
:1012100080ED000A601CC4B2042CD5DB0CE0002475
:1012200008E01FEDF90A194800EB840080ED000A80
:10123000601CC4B2042CF4DB144890ED000ABDEE2F
:10124000C00A10EE100A00B2ADF820000F4890ED71
:10125000010ABDEEC00A10EE100A00B2ADF822007D
:101260000A4890ED020A19E04C2900200000B4C29F
:101270000000B4420000C8C30000C84300007AC4A4
:1012800000007A4408000020100000205C2A0020A2
:10129000C80400200C00002000004843BDEEC00A36
:1012A00010EE100A00B2ADF82400FE4890ED030ADB
:1012B000BDEEC00A10EE100A00B2ADF826004FF4E1
:1012C0007A72002108A806F024FA0AB0BDEC048B5B
:1012D00010BD10B52DED028BB0EE408AF24890EDB6
:1012E000020ADFEDF20A30EE200AF14880ED000A32
:1012F000F04890ED000A5FED200A80EE201AEE48DB
:1013000090ED000A71EE400A9FEDEC0A28EE001AFB
:1013100090ED000A01EE200A80ED000A90ED000A2F
:10132000B5EEC00AF1EE10FA02D29FEDE50A0FE029
:10133000E14890ED000AF7EE000AB4EEE00AF1EEA3
:1013400010FA02DDB7EE000A02E0DB4890ED000A79
:10135000DC4880ED000AD64890ED000ADFEDDA0A9D
:10136000B4EEE00AF1EE10FA03D20120D74908707A
:1013700002E00020D5490870D5480078E8B9CC488B
:1013800090ED000AB5EEC00AF1EE10FA02D29FED20
:10139000CC0A0FE0C64890ED000ADFEDCE0AB4EEAD
:1013A000E00AF1EE10FA02DD9FEDCA0A02E0C04841
:1013B00090ED000ABE4880ED000AB7EE001AC6485C
:1013C0000078BB49D1ED000AB0EE480A04F01AFCDF
:1013D000B84880ED000A90ED000AB5EEC00AF1EEC3
:1013E00010FA02D29FEDB60A0FE0B24890ED000A63
:1013F000DFEDBA0AB4EEE00AF1EE10FA02DD9FED7D
:10140000B70A02E0AB4890ED000AAA4880ED000A56
:10141000BDEC028B10BD00B52DED028B83B0B0EE9C
:10142000408AAF4890ED120AF3EE0E0A80EE201AC1
:101430009FEDAC0A21EE000A8DED000AD0ED130AF3
:10144000B3EE0E1A80EE810ADFEDA60A20EE200A26
:101450008DED010A90ED140AF3EE0E0A80EE201ACB
:101460009FEDA10A21EE000A8DED020A9DED000A12
:101470009E4880ED000A9DED010A80ED010A9DED78
:10148000020A80ED020A90ED000ADFED990AB4EE3F
:10149000E00AF1EE10FA02D29FED950A0FE09348B0
:1014A00090ED000ADFED8F0AB4EEE00AF1EE10FADB
:1014B00002DD9FED8C0A02E08C4890ED000A8B481B
:1014C00080ED000A90ED010ADFED890AB4EEE00A32
:1014D000F1EE10FA02D29FED860A0FE0834890EDFC
:1014E000010ADFED800AB4EEE00AF1EE10FA02DD47
:1014F0009FED7C0A02E07D4890ED010A7B4880ED7B
:10150000010A90ED020ADFED7B0AB4EEE00AF1EE8B
:1015100010FA02D29FED770A0FE0744890ED020AAC
:10152000DFED710AB4EEE00AF1EE10FA02DD9FED94
:101530006E0A02E06D4890ED020A6C4880ED020AE6
:10154000DFED6D0A80EE880A6C48D0ED0A0A6C481F
:1015500090ED001A70EEC10A20EE200A694880ED75
:101560000F0ADFED650A80EE880A6448D0ED0B0AA9
:10157000F1EE600A624890ED011A70EEC10A20EEA9
:10158000200A604880ED100ADFED5B0A80EE880AD1
:101590005A48D0ED0C0AF1EE600A594890ED021A53
:1015A00070EEC10A20EE200A564880ED110A4F481D
:1015B00090ED000A5148D0ED0A0A30EE600AF7EECD
:1015C000000A20EE200A4F4880ED000A474890EDBF
:1015D000010A4A48D0ED0B0A30EE200AF7EE000A65
:1015E00020EE200A474880ED010A404890ED020AAB
:1015F0004248D0ED0C0A30EE200AF7EE000A20EE49
:10160000200A404880ED020A90ED000AB5EEC00ABB
:10161000F1EE10FA02DD90ED000A04E0394890ED99
:10162000000AB1EE400ADFED2F0A80EE201A35489D
:1016300080ED2D1A90ED010AB5EEC00AF1EE10FA18
:1016400002DD90ED010A04E02E4890ED010AB1EEB2
:10165000400ADFED240A80EE201A2A4880ED2E1A77
:1016600090ED020AB5EEC00AF1EE10FA02DD90ED3F
:10167000020A04E0234890ED020AB1EE400ADFEDD1
:101680001A0A80EE201A1F4880ED2F1ADFED1A0A81
:1016900080EE880AD0ED160A90ED0F1AFAEE041AC1
:1016A00032E000005C2A00202C2C00200000FA43CD
:1016B0001400002008000020180000203433FB41F3
:1016C00000000000100000200000C8420C000020B4
:1016D0008F0400200000AF43C804002000004844ED
:1016E0004C2900200000964300001643342A0020B5
:1016F000000096C3000016C36F12033BB8330020EE
:10170000402A00208828002021EE211A60EE810A5C
:1017100020EE200A80ED0C0A5FED090A80EE880AAF
:10172000D0ED1A0A90ED101AFAEE041A21EE211AE1
:1017300060EE810A20EE200A80ED0D0A5FED120AAC
:1017400080EE880AD0ED1E0A90ED111AFAEE041A06
:1017500021EE211A60EE810A20EE200A80ED0E0AA9
:1017600090ED000AD0ED0F0A30EE600AD0ED170AB6
:1017700060EE200A90ED060A00EE880A80ED060A67
:1017800090ED010AD0ED100A30EE600AD0ED1B0A90
:1017900060EE200A90ED070A00EE880A80ED070A45
:1017A00090ED020AD0ED110A30EE600AD0ED1F0A6A
:1017B00060EE200A90ED080A00EE880A80ED080A23
:1017C000E24890ED000AF6EE000A20EE200A5FEDF6
:1017D0003B0A20EE200ADE4880ED090ADB4890ED46
:1017E000000AF6EE000A20EE200A5FED420A20EE23
:1017F000200AD74880ED0A0AD44890ED000AF6EE98
:10180000000A20EE200A5FED490A20EE200AD048A7
:1018100080ED0B0A90ED060AD0ED090AF1EE600AA0
:10182000B4EEE00AF1EE10FA04D290ED090AB1EE3E
:10183000400A0FE0C64890ED060AD0ED090AB4EE62
:10184000E00AF1EE10FA02DD90ED090A02E0C0486C
:1018500090ED060ABE4880ED060A90ED070AD0ED2D
:101860000A0AF1EE600AB4EEE00AF1EE10FA04D2D0
:1018700090ED0A0AB1EE400A0FE0B54890ED070A74
:10188000D0ED0A0AB4EEE00AF1EE10FA02DD90EDB6
:101890000A0A02E0AE4890ED070AAD4880ED070A5B
:1018A00090ED080AD0ED0B0AF1EE600AB4EEE00A02
:1018B000F1EE10FA04D290ED0B0AB1EE400A0FE0FF
:1018C000A34890ED080AD0ED0B0AB4EEE00AF1EE61
:1018D00010FA02DD90ED0B0A02E09D4890ED080A37
:1018E0009B4880ED080A90ED300AF7EE000A30EED2
:1018F000C00AD0ED150A20EE200AD0ED000A90EDC6
:101900000C1A70EE810A90ED061A70EE810A60EEF4
:10191000200A90ED301A8F48D0ED2D1A9FED8E0AD7
:101920009FED8E2A02EE210AB5EEC00AF1EE10FA02
:1019300002D21FED9D0A1BE08648D0ED2D1A9FEDC7
:10194000860A9FED862A02EE210AF7EE001AB4EE0F
:10195000E10AF1EE10FA02DDB7EE000A08E07D4878
:10196000D0ED2D1A9FED7C0A9FED7C2A02EE210A14
:1019700021EE000A7A4890ED001A40EE010AB0EE1E
:10198000000A20EE800A724880ED120A90ED300ABB
:10199000F7EE000A30EEC00AD0ED190A20EE200A58
:1019A000D0ED010A90ED0D1A70EE810A90ED071A44
:1019B00070EE810A60EE200A90ED301A6548D0ED95
:1019C0002E1A9FED650A9FED652A02EE210AB5EEFB
:1019D000C00AF1EE10FA02D21FEDC70A1BE05D4803
:1019E000D0ED2E1A9FED5C0A9FED5C2A02EE210AD3
:1019F000F7EE001AB4EEE10AF1EE10FA02DDB7EEEE
:101A0000000A08E05348D0ED2E1A9FED530A9FEDCF
:101A1000532A02EE210A21EE000A514890ED011AE4
:101A200040EE010AB0EE000A20EE800A484880ED40
:101A3000130A90ED300AF7EE000A30EEC00AD0ED3E
:101A40001D0A20EE200AD0ED020A90ED0E1A70EE6B
:101A5000810A90ED081A70EE810A60EE200A90ED7E
:101A6000301A3C48D0ED2F1A9FED3B0A9FED3B2AE0
:101A700002EE210AB5EEC00AF1EE10FA02D21FED15
:101A8000F00A1BE03348D0ED2F1A9FED330A9FED8B
:101A9000332A02EE210AF7EE001AB4EEE10AF1EE63
:101AA00010FA02DDB7EE000A08E02A48D0ED2F1A3E
:101AB0009FED290A9FED292A02EE210A21EE000A54
:101AC000274890ED021A40EE010AB1EE000A20EE1E
:101AD000800A1F4880ED140AB0EE480AFFF7F9FBB0
:101AE0001B48D0ED141AB0EE611AD0ED131AF0EEC7
:101AF000610AD0ED121AB0EE610AFFF77CFA1448C1
:101B000090ED000A80ED030A90ED010A80ED040AD1
:101B100090ED020A80ED050A124890ED0A0A12487B
:101B200080ED000A0F4890ED0B0AB1EE400A0E4816
:101B300080ED010A0B4890ED0C0AB1EE400A0A480C
:101B400080ED020A03B0BDEC028B00BD1000002046
:101B5000882800204C2900206666E63ECDCC0C3F4C
:101B6000342A0020B8330020402A002070B52DED23
:101B7000108BB0EE408AB0EE60EAF0EE41EAB0EED3
:101B800061FAF0EE429AB0EE629AF0EE438A0446B1
:101B90000D4616469FEDFE0A28EE000AF3EE040AF3
:101BA00020EE200AF0EE40AAFA48D0ED080A60EED6
:101BB000A00A90ED091AD0ED091A41EE210A90ED24
:101BC0000A1AD0ED0A1A41EE210AB0EE600A00F0BE
:101BD000B1FDF14880ED000A90ED000AB5EEC00AB3
:101BE000F1EE10FA38D0EB48D0ED080AEA4890ED53
:101BF000001A80EE810AE948D0ED000A70EE600A12
:101C000090ED000A0AEEA00A80ED000AE148D0ED4E
:101C1000090AE14890ED001A80EE810ADF48D0ED14
:101C2000010A70EE600A90ED010A0AEEA00A80ED4A
:101C3000010AD848D0ED0A0AD74890ED001A80EE84
:101C4000810AD648D0ED020A70EE600A90ED020AD1
:101C50000AEEA00A80ED020AD14AD049D14803F029
:101C6000CDFECF48D0ED000A60EEA00A90ED011A3B
:101C7000D0ED011A41EE210AB0EE600A00F05AFDE3
:101C8000C94880ED000AC64890ED000AB5EEC00ACA
:101C9000F1EE10FA36D090ED010AB5EEC00AF1EE81
:101CA00010FA2FD090ED020AB5EEC00AF1EE10FA4C
:101CB00028D0BD4890ED000AB5EEC00AF1EE10FA4A
:101CC00020D0B74890ED000AB748D0ED000A80EE6A
:101CD000201AB0EE41BAB24890ED010AB248D0EDF8
:101CE000000A80EE201AF0EE41BAF0EE4B0AB0EE98
:101CF0006B0A00F064FCDFEDAD0A20EE200AAC4870
:101D000080ED000AAB4890ED010AD0ED030A20EE09
:101D1000200AD0ED000A90ED021A00EEC10AF0EEA2
:101D2000000A20EE200A9F4880ED000AA14890EDAD
:101D3000000AD0ED010A20EE200AD0ED020A90ED53
:101D4000031A00EE810AF0EE000A20EE200A954800
:101D500080ED010A974890ED010A20EE000AD0EDCF
:101D6000020A90ED021A00EE810AF7EE000AB0EEC8
:101D7000001A41EE400A8B48C0ED020A8E480078F6
:101D800000285ED08C48007802280CD19FED8B0A89
:101D90008B4880ED000A9FED890A80ED010A9FEDD6
:101DA000870A80ED020A864890ED000A7D4890ED92
:101DB000001ADFED841AF0EE690A41EEC10A9FEDC8
:101DC000821A60EE810A9FED811A00EE810A7C483A
:101DD00080ED000A90ED010A724890ED011ADFEDE6
:101DE000791AF0EE490A41EEC10A9FED771A60EECA
:101DF000810A9FED761A00EE810A714880ED010A92
:101E000090ED020A674890ED021ADFED6E1AF0EECF
:101E1000680A41EEC10A9FED6C1A60EE810A9FEDDF
:101E20006B1A00EE810A664880ED020A624800786B
:101E3000401C6149087008460078522801DB0020E8
:101E400008705F4890ED000A564890ED001ADFEDEB
:101E50005D1AF0EE690A41EEC10A9FED5B1A11EEC0
:101E6000200A5B4880ED000A554890ED010A4D4874
:101E700090ED011ADFED531AF0EE490A41EEC10A66
:101E80009FED511A11EE200A514880ED010A4C488D
:101E900090ED020A434890ED021ADFED4A1AF0EE87
:101EA000680A41EEC10A9FED481A11EE200A48481F
:101EB00080ED020A90ED000A3A48D0ED000A20EECB
:101EC000200A4348D0ED010A364890ED011A00EE91
:101ED000810A3F48D0ED020A324890ED021A00EE26
:101EE000810A3C4880ED020A69EEA90A49EE090A16
:101EF00048EEA80AB0EE600A00F01CFC364880EDFF
:101F0000000AF5EEC09AF1EE10FA02DDB0EE690AB1
:101F100001E0B1EE690ADFED310AB4EEE00AF1EE5C
:101F200010FA7DD2B5EEC09AF1EE10FA02DDB0EEF5
:101F3000490A01E0B1EE490ADFED280AB4EEE00AF1
:101F4000F1EE10FA6CD2F5EEC08AF1EE10FA02DD75
:101F5000B0EE680A01E0B1EE680ADFED200AB4EEE7
:101F6000E00AF1EE10FA5BD21B4890ED000AC9EED0
:101F7000800AF0EE609A90ED000AC9EE000AB0EE19
:101F8000609A90ED000AC8EE800AF0EE608A27E0C1
:101F9000C3F5C840B405002048000020042B0020F1
:101FA000D42A00208C2A00204400002033336542CC
:101FB00054000020280000204C00002000000000F9
:101FC000F82A0020000080455C201940CDCC4C3C14
:101FD000EC2A0020E02A00203800002000808945FB
:101FE00090ED000ADFEDFE0AB4EEE00AF1EE10FA21
:101FF00054DD90ED000A5FED070AB4EEE00AF1EE61
:1020000010FA4BD2F74890ED020A20EE090AD0ED03
:10201000010A08EEE00AF44880ED030AF14800E006
:1020200033E090ED000A20EE280AD0ED020A09EE16
:10203000E00AED4880ED040A1FED2B0A28EE000AA5
:10204000F7EE000A20EE20AA90ED030AD0ED060A72
:1020500070EE600A90ED060A0AEE200A80ED060A8C
:1020600090ED040AD0ED070A70EE600A90ED070AC1
:102070000AEE200A80ED070A90ED060A80ED000ABC
:1020800090ED070A80ED010A08E01FED340AD648FA
:1020900080ED000A1FED370A80ED010AD24890ED6D
:1020A000090AD0ED000A1FED3B1A60EE810AB0EE7E
:1020B000001A60EE810A00EE880A80ED090A90EDB0
:1020C0000A0AD0ED010A1FED431A60EE810AB0EE54
:1020D000001A60EE810A00EE880A80ED0A0A90ED8F
:1020E0000B0AD0ED020A1FED4B1A60EE810AB0EE2A
:1020F000001A60EE810A00EE880A80ED0B0A90ED6E
:10210000090ADFEDBA0AB4EEE00AF1EE10FA02D2E3
:102110009FEDB60A0FE0B44890ED090ADFEDB40A6E
:10212000B4EEE00AF1EE10FA02DD9FEDB10A02E032
:10213000AD4890ED090AAC4880ED090A90ED0A0A15
:10214000DFEDAA0AB4EEE00AF1EE10FA02D29FED3A
:10215000A70A0FE0A44890ED0A0ADFEDA50AB4EE45
:10216000E00AF1EE10FA02DD9FEDA10A02E09E48BE
:1021700090ED0A0A9C4880ED0A0A90ED0B0ADFED0B
:102180009B0AB4EEE00AF1EE10FA02D29FED970A34
:102190000FE0954890ED0B0ADFED950AB4EEE00AEA
:1021A000F1EE10FA02DD9FED920A02E08E4890ED0A
:1021B0000B0A8D4880ED0B0A8A4890ED020AB5EEB5
:1021C000C00AF1EE10FA2ADD8A48007898B18A48F0
:1021D000D0ED000A894890ED001A70EEC10AB0EE09
:1021E000600A00F0A5FCDFED860A20EE200A854893
:1021F00080ED000A18E08048D0ED000A7F4890ED9D
:10220000001A70EEC10AB0EE600A00F091FCDFED3A
:102210007E0A20EE200A7B4880ED000A04E01FEDD4
:10222000990A784880ED000A6F4890ED000AD0EDD9
:10223000090A30EE200ADFED750A20EE200A69480F
:1022400090ED001A6F48D0ED001AF0EE4E0A41EE04
:10225000610A9FED6F1A00EE810A634880ED0C0A57
:1022600090ED010AD0ED0A0A30EE200ADFED670A90
:1022700020EE200A5B4890ED011A6248D0ED001A6A
:10228000F0EE6E0A41EE610A9FED611A00EE810ADE
:10229000554880ED0D0A5348D0ED020A594890ED9B
:1022A000001AB0EE4F0A00EEC10ADFED590A20EE27
:1022B000200A4D4880ED0E0A564890ED010AB1EE15
:1022C000400A4948D0ED0C0A20EE200A5148D0EDD2
:1022D000020A454890ED0D1A00EEC10A4D48D0EDB6
:1022E000030A414890ED0E1A00EEC10A4948D0EDAC
:1022F000000A40EE080AC0ED000A90ED000A3A48D4
:10230000D0ED0C0A20EE200A4248D0ED020A3648F1
:1023100090ED0E1A00EE810A3E48D0ED030A3248D5
:1023200090ED0D1A00EEC10A3A48D0ED010A40EED8
:10233000080AC0ED010A90ED000A2B48D0ED0D0A05
:1023400020EE200A3348D0ED010A274890ED0E1AFE
:1023500000EEC10A2F48D0ED030A234890ED0C1A75
:1023600000EE810A2B48D0ED020A40EE080AC0EDCB
:10237000020A90ED000A1C48D0ED0E0A20EE200A59
:102380002448D0ED010A184890ED0D1A00EE810A9C
:102390002048D0ED020A144890ED0C1A00EEC10A54
:1023A0001C48D0ED030A40EE080AC0ED030AD0ED48
:1023B000000A60EEA00A90ED011AD0ED011A41EE7C
:1023C000210A90ED021AD0ED021A41EE210A90ED99
:1023D000031AD0ED031A41EE210AB0EE600A1BE0A9
:1023E00000806D458C2A0020982A002034FA0EBD0A
:1023F00034FA0E3DC80400205400002024000020C0
:1024000090C2753D500000206766E63E9A99993E5D
:1024100034FA8E3C2800002000F08CF95C4880EDF6
:10242000000A5C4890ED000A5948D0ED000A80EEA1
:10243000201A584880ED001A90ED010A5448D0ED5A
:10244000000A80EE201A534880ED011A90ED020A2E
:102450004F48D0ED000A80EE201A4E4880ED021A57
:1024600090ED030A4A48D0ED000A80EE201A494850
:1024700080ED031A90ED011A21EE011AD0ED021A37
:1024800090ED022A01EE821AF7EE001AB0EE002A51
:1024900042EE411AF0EE610A90ED001AD0ED011AF9
:1024A00021EE211AD0ED021A90ED032A01EE821AD4
:1024B000F0EE001A21EE211AB0EE410A00F07FF88A
:1024C000DFED350A20EE200A84ED000A314890ED58
:1024D000010AD0ED030A20EE200AD0ED000A90EDAB
:1024E000021A00EEC10AF0EE000A20EE200A10EEF9
:1024F000101A08460FF037F841EC1D0BB0EE4D0AEC
:10250000F0EE6D0A0FF068FAB0EE40CAF0EE60CA65
:102510009FED220B53EC102B51EC1C0B0EF0A0FF87
:1025200041EC1B0B0FF062F828601A4890ED001A7E
:1025300021EE011AD0ED011A90ED012A01EE821A66
:10254000F7EE001AB0EE002A52EE011AF0EE610A20
:1025500090ED011AB1EE411AD0ED021A21EE211AC6
:10256000D0ED001A90ED032A01EEC21AF0EE001A27
:1025700021EE211AB0EE410A00F021F8DFED060A43
:1025800020EE200A86ED000ABDEC108B70BD000025
:102590003C0000202800002033336542000000602A
:1025A00066A64C40F0EE400AF5EEC00AF1EE10FAD5
:1025B00002DBB0EE600A7047B1EE600AFBE700B5DF
:1025C000B0EE403AB0EE602AB5EEC03AF1EE10FA45
:1025D00004D0B5EEC02AF1EE10FA02D19FEDFB1A3D
:1025E00099E0B0EE430AFFF7DDFFF0EE403AB0EEBF
:1025F000420AFFF7D7FFF0EE402AF4EEE23AF1EE9E
:1026000010FA02D283EEA24A01E082EEA34A9FEDC5
:10261000F00AB4EEC04AF1EE10FA02D2F0EE441A1B
:102620002DE0DFEDEC0AB6EE000A14EE200AF0EE23
:10263000404ABDEEE40A10EE100A00EE100AB8EEB1
:10264000C00A34EEC00AF0EE404AE34901EB8001D3
:1026500091ED000AF0EE401ADF4A411C02EB8101C5
:1026600091ED000A114601EB8001D1ED000A70EEF8
:10267000600AB0EE610A00EEA40AF0EE401AF4EE31
:10268000E32AF1EE10FA20DDB5EEC02AF1EE10FAE1
:102690000ADBB5EEC03AF1EE10FA02DBB0EE611AD9
:1026A00039E0B1EE611A36E09FEDCC1AB5EEC03AD2
:1026B000F1EE10FA04DB31EE610AB0EE401A2AE0C6
:1026C00031EEC10AB0EE401A25E0B5EEC03AF1EEA7
:1026D00010FA10DB9FEDC21AB5EEC02AF1EE10FA27
:1026E00004DB31EE610AB0EE401A14E031EE210A4B
:1026F000B0EE401A0FE09FEDBB1AB5EEC02AF1EE26
:1027000010FA04DB31EE210AB0EE401A03E031EE9C
:10271000610AB0EE401AB0EE410A00BD00B5B0EE5D
:10272000405AF0EE605AF0EE450AB0EE650AFFF747
:1027300046FF00BDB0EE401AB7EE080AB0EE402AE0
:10274000B6EE000A21EE000AF0EE401AF0EE410A61
:1027500010EE900AA449A1EB600000EE900A61EE31
:10276000A02AB7EE080A02EEE00A20EE200AF0EEF8
:10277000400A61EEA02AB7EE080A02EEE00A20EE57
:10278000200AF0EE400A21EE200A704710B52DED28
:102790000A8BB0EE409AF0EE609A9FED940B53ECEA
:1027A000102B51EC190B0EF0F1FE18D29FED910B8E
:1027B00053EC102B51EC190B0EF052FE41EC1B0B9D
:1027C0009FED8E0B53EC102B0EF0A3FD41EC1A0B7A
:1027D00053EC192B0EF044FE41EC180B17E09FED63
:1027E000850B53EC102B51EC190B0EF039FE41EC1C
:1027F0001B0B9FED820B53EC102B0EF02EFE41ECC9
:102800001A0B53EC192B0EF02BFE41EC180B9FED1D
:10281000770B53EC102B51EC180B0EF0B7FE20D2B7
:102820009FED780B53EC102B51EC180B0EF071FD53
:1028300041EC1C0B9FED750B53EC102B0EF010FEB2
:1028400041EC1B0B9FED6F0B53EC102B0EF061FD59
:1028500041EC1A0B53EC182B0EF002FE41EC180B56
:102860001FE09FED680B53EC102B51EC180B0EF092
:10287000F1FD41EC1C0B9FED670B53EC102B0EF0A0
:10288000EFFD41EC1B0B9FED5F0B53EC102B0EF09B
:1028900040FD41EC1A0B53EC182B0EF0E1FD41EC1E
:1028A000180BB0EE480AF0EE680ABDEC0A8B10BDBA
:1028B00010B52DED068BB0EE408AF0EE608A012453
:1028C0009FED560B53EC102B51EC180B0EF076FECF
:1028D0000AD89FED520B53EC102B51EC180B0EF055
:1028E000B9FD41EC180BA41E20460EF02BFE41EC66
:1028F000190BB0EE480AF0EE680AFFF747FFB0EE9A
:1029000040AAF0EE60AA53EC192B51EC1A0B0EF012
:10291000A7FD41EC100BBDEC068B10BD10B52DEDE5
:10292000088BB0EE408AF0EE608A01249FED3D0BEB
:1029300053EC102B51EC180B0EF0EBFC41EC180B88
:102940009FED360B53EC102B51EC180B0EF036FEAE
:102950000AD8A41E9FED310B53EC102B51EC180B31
:102960000EF078FD41EC180B20460EF0EBFD41EC2B
:102970001A0BB0EE480AF0EE680AFFF799FFB0EEC6
:1029800040BAF0EE60BA53EC1A2B51EC1B0B0EF070
:1029900067FD41EC190B0EF029FE00EE100ABDECAC
:1029A000088B10BDB0EE401AB5EEC01AF1EE10FA69
:1029B0003CDD31EE600AB5EEC00AF1EE10FA37D216
:1029C000DFED021AB0EE610A32E000000000000004
:1029D0008180803B0000804358000020DB0F49408D
:1029E000DB0FC93FDB0FC9BFDF59375F00000000B5
:1029F00000000000000000602FF0D93F00000060E0
:102A0000305FF43F000000000000F03F000000C015
:102A1000CCCCCCBF000000C0CCCCCC3FF1D4C85350
:102A2000FB210940F1D4C853FB21F93FB0EE410A24
:102A30007047B0EE401AB5EEC01AF1EE10FA0BD2A4
:102A400031EE200AB5EEC00AF1EE10FA06DD5FEDB8
:102A5000211AB0EE610A01E0B0EE410A7047F0EED3
:102A6000401AF4EEE01AF1EE10FA09DD31EEC10A77
:102A7000B4EEE00AF1EE10FA0BD2B0EE600A08E014
:102A800031EE810AB4EEE00AF1EE10FA01DDB0EEAB
:102A9000600A7047F0EE401AB1EE412A32EE202A69
:102AA000B4EEE12AF1EE10FA09D231EE202AB4EEAA
:102AB000E12AF1EE10FA02DDB0EE600A01E0B0EEBC
:102AC000610A704710B52DED028BB0EE408AF0EE32
:102AD000608A9FED730B53EC102B51EC180B0EF02A
:102AE0006DFD0CD29FED700B53EC102B51EC180BBD
:102AF0000EF0B0FC41EC100BBDEC028B10BD9FED55
:102B00006C0B53EC102B51EC180B0EF03FFD0AD25E
:102B10009FED650B53EC102B51EC180B0EF0F9FBED
:102B200041EC100BE8E7B0EE480AF0EE680AE3E784
:102B3000F0EE400A9FED600AF4EEC00AF1EE10FAE2
:102B400004DD9FED5E0A30EEC00A70479FED5C0A1F
:102B5000F4EEC00AF1EE10FA04D29FED580A30EEFE
:102B6000800AF2E7B0EE600AEFE7F0EE400AF5EE19
:102B7000C00AF1EE10FA02DDB0EE600A01E0B1EE3B
:102B8000600A90ED041AB4EEC10AF1EE10FA0CDD01
:102B9000F5EEC00AF1EE10FA04D291ED040AB1EE9E
:102BA000400A704791ED040AFBE7F5EEC00AF1EE2A
:102BB00010FA02DDB0EE600A01E0B1EE600A90EDBD
:102BC000031AB4EEC10AF1EE10FA0CDDF5EEC00AFC
:102BD000F1EE10FA04D291ED030AB1EE400AE0E7FB
:102BE00091ED030ADDE7F5EEC00AF1EE10FA02DD21
:102BF000B0EE600A01E0B1EE600A90ED021AB4EEA8
:102C0000C10AF1EE10FA0CDDF5EEC00AF1EE10FA91
:102C100004D291ED020AB1EE400AC2E791ED020A38
:102C2000BFE7F5EEC00AF1EE10FA02DDB0EE600A81
:102C300001E0B1EE600A90ED011AB4EEC10AF1EEC6
:102C400010FA0CDDF5EEC00AF1EE10FA04D291EDA7
:102C5000010AB1EE400AA4E791ED010AA1E7F5EE01
:102C6000C00AF1EE10FA02DDB0EE600A01E0B1EE4A
:102C7000600A90ED001AB4EEC10AF1EE10FA0CDD14
:102C8000F5EEC00AF1EE10FA04D291ED000AB1EEB1
:102C9000400A86E791ED000A83E71FEDB40A80E75A
:102CA00000000000008066400000000000807640C8
:102CB00000000000008066C0000034430000B44300
:102CC000000034C370B505460C462146F94806F0AD
:102CD00082F970BD70B504460D46AA20F54908700A
:102CE0004870EF2088700220C87008460471457152
:102CF0000026002005E0EF49095C3144CEB2411CBA
:102D0000C8B20628F7DBEB4886710721FFF7DAFF28
:102D100070BD70B504460D46AA20E649087048709B
:102D2000EE2088700220C8700846047145710026A4
:102D3000002005E0DF49095C3144CEB2411CC8B235
:102D40000628F7DBDB4886710721FFF7BBFF70BD64
:102D50002DE9F04105460E460024AA222146641CB6
:102D6000D44842542146641C425405222146641C26
:102D7000425402222146641C42542146641C45549C
:102D80002146641C46540027002005E0C949095C1F
:102D90003944CFB2411CC8B2A042F7DB2046611CC7
:102DA000CCB2C4490F542146C24806F004FCBDE829
:102DB000F0812DE9F04F2DED028B81B005460E46D6
:102DC000B0EE408ADDE90EABDDE90C890024AA22D1
:102DD0002146641CB74842542146641C42540422D4
:102DE0002146641C425400222146641C4254214660
:102DF000641C45542146641C4654CDF800809DF85F
:102E000001202146641C42549DF800202046611C8C
:102E1000CCB2A8490A54CDF800909DF80120204674
:102E2000611CCCB2A3490A549DF800202146601CC5
:102E3000C4B2A0484254CDF800A09DF8012020461D
:102E4000611CCCB29B490A549DF800202046611CAD
:102E5000CCB298490A54CDF800B09DF80120204624
:102E6000611CCCB293490A549DF800202046611C95
:102E7000CCB290490A54201FC8700027002005E0FA
:102E80008C49095C3944CFB2411CC8B2A042F7DB7F
:102E90002046611CCCB287490F542146854806F074
:102EA0008AFB01B0BDEC028BBDE8F08F70B52DED53
:102EB0000A8B82B00546B0EE408AF0EE608AB0EE32
:102EC000419AF0EE619AB0EE42AAF0EE62AAB0EE3C
:102ED00043BAF0EE63BAB0EE44CA0024AA222146F7
:102EE000641C744842542146641C425405F10F008E
:102EF000C2B22146641C6F48425400222146641C21
:102F000042549FED6D0A28EE000ABDEEC00A10EE95
:102F1000100A00B201909DF805202146641C654806
:102F200042549DF804202146641C42549FED620ADD
:102F300028EE800ABDEEC00A10EE100A00B2019021
:102F40009DF805202146641C5A4842549DF80420EF
:102F50002046611CCCB257490A549FED570A29EE0E
:102F6000000ABDEEC00A10EE100A00B201909DF8F2
:102F700005202046611CCCB24E490A549DF804201D
:102F80002046611CCCB24B490A549FED4B0A29EEF6
:102F9000800ABDEEC00A10EE100A00B201909DF842
:102FA00005202046611CCCB242490A549DF80420F9
:102FB0002046611CCCB23F490A549FED3F0A2AEEDD
:102FC000000ABDEEC00A10EE100A00B201909DF892
:102FD00005202046611CCCB236490A549DF80420D5
:102FE0002046611CCCB233490A549FED330A2AEEC5
:102FF000800ABDEEC00A10EE100A00B201909DF8E2
:1030000005202046611CCCB22A490A549DF80420B0
:103010002046611CCCB227490A549FED270A2BEEAB
:10302000000ABDEEC00A10EE100A00B201909DF831
:1030300005202046611CCCB21E490A549DF804208C
:103040002046611CCCB21B490A549FED1B0A2BEE93
:10305000800ABDEEC00A10EE100A00B201909DF881
:1030600005202046611CCCB212490A549DF8042068
:103070002046611CCCB20F490A549FED0F0A2CEE7A
:10308000000ABDEEC00A10EE100A00B201909DF8D1
:1030900005202046611CCCB206490A549DF8042044
:1030A0002046611CCCB203490A54201FC870002678
:1030B000002009E0242B002000007A44FE49095C2E
:1030C0003144CEB2411CC8B2A042F7DB2046611C9D
:1030D000CCB2F9490E542146F748FFF7F3FD02B090
:1030E000BDEC0A8B70BD7FB50024AA222146641C6A
:1030F000F14842542146641C425406222146641C75
:10310000425400222146641C42549DF8012021466D
:10311000641C42549DF800202146641C42549DF8D2
:1031200005202146641C42549DF804202046611C61
:10313000CCB2E1490A549DF809202046611CCCB26A
:10314000DD490A549DF808202046611CCCB2DA49BA
:103150000A549DF80D202046611CCCB2D6490A5471
:103160009DF80C202146601CC4B2D34842549DF8FF
:1031700021202046611CCCB2CF490A549DF8202062
:103180002046611CCCB2CC490A549DF8252020462B
:10319000611CCCB2C8490A549DF824202046611C09
:1031A000CCB2C5490A549DF829202046611CCCB2F6
:1031B000C1490A549DF828202046611CCCB2BE4962
:1031C0000A549DF82D202046611CCCB2BA490A54FD
:1031D0009DF82C202046611CCCB2B7490A54201F10
:1031E000C8700025002005E0B349095C2944CDB230
:1031F000411CC8B2A042F7DB2046611CCCB2AE49EC
:103200000D542146AC48FFF75DFD7FBD7FB500241E
:10321000AA222146641CA84842542146641C4254F8
:1032200003222146641C425400222146641C42545D
:103230009DF801202146641C42549DF8002021463F
:10324000641C42549DF805202146641C42549DF89C
:1032500004202046611CCCB297490A549DF80920ED
:103260002046611CCCB294490A549DF8082020469F
:10327000611CCCB290490A549DF80D202046611C77
:10328000CCB28D490A549DF80C202046611CCCB26A
:1032900089490A549DF821202046611CCCB28649F8
:1032A0000A549DF820202146601CC4B28248425432
:1032B0009DF825202046611CCCB27F490A549DF818
:1032C00024202046611CCCB27B490A549DF8292059
:1032D0002046611CCCB278490A549DF8282020462B
:1032E000611CCCB274490A549DF82D202046611C03
:1032F000CCB271490A549DF82C202046611CCCB2F6
:103300006D490A549DF831202046611CCCB26A49AF
:103310000A549DF830202046611CCCB266490A54FC
:103320009DF835202046611CCCB263490A549DF8B3
:1033300034202046611CCCB25F490A54201FC8705B
:103340000025002005E05C49095C2944CDB2411C00
:10335000C8B2A042F7DB2046611CCCB256490D54DE
:1033600021465548FFF7AEFC7FBD73B50024AA2265
:103370002146641C504842542146641C4254072292
:103380002146641C425400222146641C42549DF88C
:1033900003202146641C42549DF802202146641CEF
:1033A00042549DF801202146641C42549DF800209F
:1033B0002046611CCCB240490A549DF805202046A5
:1033C000611CCCB23C490A549DF804202046611C83
:1033D000CCB239490A54201FC8700025002005E0EE
:1033E0003549095C2944CDB2411CC8B2A042F7DB83
:1033F0002046611CCCB230490D5421462E48FFF7BF
:1034000061FC7CBD2DE9F84F05460E4617469846EF
:10341000DDE90AAB0024AA222146641C2648425456
:103420002146641C425402222146641C425400225C
:103430002146641C425400959DF801202146641CDD
:1034400042549DF800202146641C425400969DF889
:1034500001202146641C42549DF800202146601C36
:10346000C4B21548425400979DF801202046611CC3
:10347000CCB211490A549DF800202046611CCCB200
:103480000D490A54CDF800809DF801202046611CAA
:10349000CCB209490A549DF800202046611CCCB2E8
:1034A00005490A54CDF800A09DF801202046611C72
:1034B000CCB201490A5401E0242B00209DF80020E1
:1034C0002046611CCCB2FE490A54CDF800B09DF8EC
:1034D00001202146601CC4B2F94842549DF80020E6
:1034E0002146601CC4B2F64842540C9800909DF8E6
:1034F00001202046611CCCB2F1490A549DF80020FD
:103500002046611CCCB2EE490A540D9800909DF8FB
:1035100001202046611CCCB2E9490A549DF80020E4
:103520002046611CCCB2E6490A540E9800909DF8E2
:1035300001202046611CCCB2E1490A549DF80020CC
:103540002046611CCCB2DE490A54002000909DF850
:1035500001202046611CCCB2D9490A549DF80020B4
:103560002046611CCCB2D6490A54201FC8704FF0C7
:103570000009002006E0D249095C494401F0FF0936
:10358000411CC8B2A042F6DB2046611CCCB2CC493B
:1035900001F800902146CA48FFF794FBBDE8F88F78
:1035A0002DE9FF412DED040B2DED048B82B0B0EE23
:1035B000408AF0EE608AB0EE419A05460E46174604
:1035C00000240095AA222146641CBD48425421468D
:1035D000641C425401222146641C425400222146AC
:1035E000641C42549FEDB70A28EE000ABDEEC00AE3
:1035F00010EE100A00B201909DF805202146641CCF
:10360000AF4842549DF804202146641C42549FED6B
:10361000AD0A28EE800ABDEEC00A10EE100A00B214
:1036200001909DF805202146641CA54842549DF850
:1036300004202046611CCCB2A1490A549FEDA10A86
:1036400029EE000ABDEEC00A10EE100A00B2019089
:103650009DF805202146601CC4B2994842549DF84B
:1036600004202046611CCCB295490A549DF80320E1
:103670002046611CCCB292490A549DF80220214692
:10368000601CC4B28E4842549DF801202046611C43
:10369000CCB28B490A549DF800202046611CCCB264
:1036A00087490A542046611CCCB285490E542046F5
:1036B000611CCCB282490F549DF835202046611C14
:1036C000CCB27F490A549DF834202046611CCCB20C
:1036D0007B490A54201FC8704FF00008002006E004
:1036E0007749095C414401F0FF08411CC8B2A0427F
:1036F000F6DB2046611CCCB2714901F800802146FE
:103700006F4805F03AFE02B0BDEC048B08B0BDE88E
:10371000F0812DE9F0412DED048B82B0B0EE408AAE
:10372000F0EE608AB0EE419A05460E461746002438
:103730000095AA222146641C614842542146641C1B
:10374000425401222146641C425400222146641C3A
:1037500042549FED5C0A28EE000ABDEEC00A10EE4E
:10376000100A00B201909DF805202146641C5448BF
:1037700042549DF804202146641C42549FED510A96
:1037800028EE800ABDEEC00A10EE100A00B20190C9
:103790009DF805202146641C494842549DF80420A8
:1037A0002046611CCCB246490A549FED460A29EED8
:1037B000000ABDEEC00A10EE100A00B201909DF89A
:1037C00005202046611CCCB23D490A549DF80420D6
:1037D0002046611CCCB23A490A549DF80320204689
:1037E000611CCCB236490A549DF802202046611C67
:1037F000CCB233490A549DF801202046611CCCB25A
:103800002F490A549DF800202146601CC4B22C4860
:1038100042542046611CCCB229490E542046611CFA
:10382000CCB227490F54201FC8704FF00008002069
:1038300006E02349095C414401F0FF08411CC8B27D
:10384000A042F6DB2046611CCCB21D4901F8008085
:1038500021461B48FFF736FA02B0BDEC048BBDE8E9
:10386000F0817FB505460024AA222146641C144835
:1038700042542146641C425400222146641C425496
:103880002146641C42542146641C45549DF8052081
:103890002146641C42549DF804202146641C425475
:1038A0009DF809202046611CCCB205490A549DF8B8
:1038B00008202046611CCCB201490A5404E00000F3
:1038C000242B00200000C8429DF80D202046611CDA
:1038D000CCB2F8490A549DF80C202046611CCCB2A9
:1038E000F4490A549DF821202046611CCCB2F149CC
:1038F0000A549DF820202046611CCCB2ED490A54A0
:10390000201FC8700026002005E0EA49095C314408
:10391000CEB2411CC8B2A042F7DB2046611CCCB23B
:10392000E4490E542146E348FFF7CCF97FBD10B5BA
:1039300086B0E1480078E149097890FBF1F201FB9B
:103940001201DE480078401E814202D10120DC498C
:103950004871D9480078DB49097890FBF1F201FB06
:103960001201D8480078401E814202D10120D4497A
:103970008871D1480078D449097890FBF1F201FBB5
:103980001201D1480078801E814202D10120CC4929
:103990004874C9480078CD49097890FBF1F201FBE1
:1039A0001201CA480078401E814202D10120C44958
:1039B0000871C1480078C649097890FBF1F201FB13
:1039C0001201C3480078401E814202D10120BC4947
:1039D0004873B9480078BF49097890FBF1F201FBC0
:1039E0001201BC480078801E814202D10120B449F6
:1039F000C873B1480078B849097890FBF1F201FB2F
:103A00001201B5480078801E814202D10120AC49E4
:103A10000874A9480078B149097890FBF1F201FBDC
:103A20001201AE480078C01E814202D10120A44993
:103A30008874A1480078AA49097890FBF1F201FB4B
:103A40001201A7480078001F814202D101209C4941
:103A5000C87499480078401CC0B297490870C828BB
:103A600001DD002008709648007838B1944A5178FA
:103A70001078FFF74EF9002091490870904880783F
:103A800048B100208E4988709648017896480078A1
:103A9000FFF720F960E28A48C07860B100208849C9
:103AA000C8704FF4C87364224FF4967100900420DC
:103AB000FFF7D7FE50E28248007928B30020804902
:103AC00008718A48027800210846894B93ED001A54
:103AD000884BD3ED000A884B93ED000AFFF719FEDF
:103AE0008648008803B28148027885480178002022
:103AF0007F4C94ED001A7F4CD4ED000A7E4C94ED7F
:103B0000000AFFF74DFD27E26D48807C18B10020C8
:103B10006B49887420E26A48407C18B100206849EB
:103B2000487419E266484079E8B300206449487156
:103B3000744890ED0A0ABDEEC00A10EE100A02B2F7
:103B4000704890ED090ABDEEC00A10EE100A00B2EE
:103B50006C4991ED080ABDEEC00A10EE101A09B2C8
:103B6000694B93ED090ABDEEC00A10EE103A1BB284
:103B7000CDE90131CDE90302634890ED080ABDEEBD
:103B8000C00A10EE100A00B25F4C009094ED070AD4
:103B9000BDEEC00A10EE104A23B25B4C94ED060A4B
:103BA000BDEEC00A00E015E010EE104A22B2564CFD
:103BB00094ED050ABDEEC00A10EE104A21B2524C37
:103BC00094ED040ABDEEC00A10EE104A20B2FFF7D1
:103BD00019FCC1E13A48807948B100203849887120
:103BE0004648008881B20020FFF7BFFBB4E13448AB
:103BF000407B78B300203249487340F2DC5243489E
:103C0000C08900F2DC5080B24049898901F2DC5160
:103C100089B2CDE903023E4805920291C0883D4930
:103C200009883A4CCDE90010648804F2DC54A3B250
:103C3000364C248804F2DC54A2B2344CE48804F2FA
:103C4000DC54A1B2314CA48804F2DC54A0B2FFF7DA
:103C5000DDFA81E1FFE71A48C07B48B3002018492C
:103C6000C8730090019002902B4C039094ED030ACE
:103C7000BCEEC00A10EE104AA3B2274C94ED020A23
:103C8000BCEEC00A10EE104AA2B2234C94ED010A19
:103C9000BCEEC00A10EE104AA1B21F4C94ED000A0F
:103CA000BCEEC00A10EE104AA0B2FFF71CFA53E1B6
:103CB00034E00000242B0020700400207104002058
:103CC000102B0020720400207304002074040020D4
:103CD000750400207604002077040020780400207A
:103CE000790400205D0400205C040020C80400204A
:103CF00024000020200000201C000020C03F0020E5
:103D00008F040020B4050020B8330020FC2B0020D5
:103D1000A8330020840400205C2A0020FE48007C98
:103D200018B10020FC49087416E1FB48C07958B36B
:103D30000020F949C871F948D0ED1E4AB0EE644A36
:103D4000D0ED1F4AF0EE643AD0ED1D4AB0EE643A71
:103D5000D0ED1A4AF0EE642AD0ED1B4AB0EE642A88
:103D6000D0ED194AF0EE641AD0ED164AB0EE641A9E
:103D7000D0ED174AF0EE640AD0ED154AB0EE640AB1
:103D80000120FFF793F8E7E0E348007A58B30020FA
:103D9000E1490872E248D0ED1E4AB0EE644AD0ED27
:103DA0001F4AF0EE643AD0ED1D4AB0EE643AD0ED11
:103DB0001A4AF0EE642AD0ED1B4AB0EE642AD0ED28
:103DC000194AF0EE641AD0ED164AB0EE641AD0ED3E
:103DD000174AF0EE640AD0ED154AB0EE640A0220EC
:103DE000FFF764F8B8E0CC48407A58B30020CA49DD
:103DF0004872CC48D0ED214AB0EE644AD0ED224A58
:103E0000F0EE643AD0ED204AB0EE643AD0ED1D4AAF
:103E1000F0EE642AD0ED1E4AB0EE642AD0ED1C4AC2
:103E2000F0EE641AD0ED194AB0EE641AD0ED1A4AD9
:103E3000F0EE640AD0ED184AB0EE640A0320FFF7F2
:103E400035F889E0B448807AF8B10020B249887228
:103E5000B448D0ED251AB0EE611AD0ED261AF0EE76
:103E6000610AD0ED241AB0EE610A9FEDAF4ADFED92
:103E7000AE3A9FEDAD3ADFEDAC2A9FEDAB2ADFED18
:103E8000AA1A0420FFF712F866E0A348C07AC0B16E
:103E90000020A149C8729FEDA44ADFEDA33A9FED2F
:103EA000A23ADFEDA12A9FEDA02ADFED9F1A9FED38
:103EB0009E1ADFED9D0A9FED9C0A0520FEF7F6FF96
:103EC0004AE09548007BC0B10020934908739FEDFC
:103ED000964ADFED953A9FED943ADFED932A9FEDF8
:103EE000922ADFED911A9FED901ADFED8F0A9FED78
:103EF0008E0A0620FEF7DAFF2EE08748C07C0128F4
:103F00002AD100208449C874C87488480078E8B170
:103F10008748B0F900008749B1F900208649B1F916
:103F20000010864BB3F900309FED7F0ACDE90031D8
:103F3000CDE9022000231A468148017881480078A3
:103F4000FEF737FF00207949087005E07C480178CA
:103F50007C480078FEF7FCFE06B010BD70B52DED74
:103F6000048B04460E460025002004E0215C294411
:103F7000CDB2411CC8B2711E8142F7DCA01910F805
:103F8000010CA84202D0BDEC048B70BD2078AA2899
:103F900002D16078AF2800D0F5E7A078012832D1AF
:103FA0002079012802D1684908702CE02079022884
:103FB00003D101206449487025E02079032804D109
:103FC00001206149087048701DE02079042803D160
:103FD00001205E49087016E0207905280CD10120E7
:103FE0005B49087001225B4806F0A5FF40225A4950
:103FF0005A4806F0A0FF06E02079212802DB20794C
:10400000262800DD00BFA078022814D120790128DD
:1040100006D14149C871087248728872C872087323
:104020002079A02802D101203B49C8702079A1281D
:1040300001D1FCF773FBA078032836D14048007803
:10404000012802D0022001F0CDF92079617941EAFE
:10405000002043498880A079E17941EA0020404965
:10406000C880207A617A41EA00203D490880A07A20
:10407000E17A41EA00203A494880207B617B41EAAD
:10408000002037490881A07BE17B41EA00203449C8
:104090004881207C617C41EA002031498881A07CF4
:1040A000E17C41EA00202E49C881A078202802D175
:1040B000012024490870A078212802D1002021493C
:1040C0000870A078222802D120791D490870A078B4
:1040D00024281ED10120154908706079217940EA11
:1040E000012000B213490880E079A17940EA01205B
:1040F00000B20F490880607A217A40EA012000B2BC
:104100000E490880E07AA17A40EA012000B20A490B
:104110000880A078252825E0102B00208828002082
:104120004C29002054070020000000005E040020FD
:104130006204002060040020660400206404002063
:104140008F040020C8040020B8330020E1050020BF
:1041500005000020000004081407002000000608E5
:10416000562B002005D16079217940EA0120FD49D4
:104170000880A07810287DD12179090209B26279DE
:1041800041EA02000DF0DEF941EC190B9FEDF60B50
:1041900053EC102B0DF064F941EC180B0DF026FADE
:1041A000F3494865A179090209B2E27941EA0200BE
:1041B0000DF0C8F941EC190B9FEDEB0B53EC102BF4
:1041C0000DF04EF941EC180B0DF010FAE849C865F6
:1041D000217A090209B2627A41EA02000DF0B2F9CD
:1041E00041EC190B9FEDE00B53EC102B0DF038F95F
:1041F00041EC180B0DF0FAF9DD498865A17A090246
:1042000009B2E27A41EA02000DF09CF941EC190B87
:104210009FEDD50B53EC102B0DF022F941EC180B50
:104220000DF0E4F9D2494866217B090209B2627BAC
:1042300041EA02000DF086F941EC190B9FEDCA0B23
:1042400053EC102B0DF00CF941EC180B0DF0CEF9DE
:104250000146C748C166A17B090209B2E27B41EA77
:1042600002000DF06FF941EC190B9FEDBF0B53EC01
:10427000102B00E05CE00DF0F3F841EC180B0DF0B2
:10428000B5F90146BA488166217C090209B2627C0F
:1042900041EA02000DF056F941EC190B9FEDB20B0B
:1042A00053EC102B0DF0DCF841EC180B0DF09EF9DF
:1042B000AF494867A17C090209B2E27C41EA0200E9
:1042C0000DF040F941EC190B9FEDA70B53EC102BAF
:1042D0000DF0C6F841EC180B0DF088F90146A44822
:1042E000C167217D090209B2627D41EA02000DF039
:1042F00029F941EC190B9FED9C0B53EC102B0DF0A1
:10430000AFF841EC180B0DF071F901469848816740
:104310009848807838B9012096498870A0789649E5
:10432000087096480570FCF7F3F90120944908805D
:10433000A07811287DD12179090209B2627941EA78
:1043400002000DF0FFF841EC190B9FED870B53ECC9
:10435000102B0DF085F841EC180B0DF047F9894949
:104360004865A179090209B2E27941EA02000DF03B
:10437000E9F841EC190B9FED7C0B53EC102B0DF081
:104380006FF841EC180B0DF031F97E49C865217AC0
:10439000090209B2627A41EA02000DF0D3F841EC59
:1043A000190B9FED710B53EC102B0DF059F841ECEC
:1043B000180B0DF01BF973498865A17A090209B23F
:1043C000E27A41EA02000DF0BDF841EC190B9FEDD5
:1043D000660B53EC102B0DF043F841EC180B0DF06D
:1043E00005F968494866217B090209B2627B41EA06
:1043F00002000DF0A7F841EC190B9FED5B0B53EC9D
:10440000102B0DF02DF841EC180B0DF0EFF80146D4
:104410005C48C166A17B090209B2E27B41EA020065
:104420000DF090F841EC190B9FED4F0B53EC102B56
:1044300000E05CE00DF014F841EC180B0DF0D6F83C
:10444000014650488166217C090209B2627C41EA3A
:1044500002000DF077F841EC190B9FED430B53EC84
:10446000102B0CF0FDFF41EC180B0DF0BFF8454987
:104470004867A17C090209B2E27C41EA02000DF022
:1044800061F841EC190B9FED380B53EC102B0CF03D
:10449000E7FF41EC180B0DF0A9F801463948C16758
:1044A000217D090209B2627D41EA02000DF04AF85D
:1044B00041EC190B9FED2C0B53EC102B0CF0D0FFA3
:1044C00041EC180B0DF092F801462E4881672948FF
:1044D000807838B9012027498870A078264908706B
:1044E00026480570FCF714F9012025490880A078BA
:1044F00012287CD12179090209B2627941EA0200CD
:104500000DF020F841EC190B9FED170B53EC102B1D
:104510000CF0A6FF41EC180B0DF068F81A4908667C
:10452000A179090209B2E27941EA02000DF00AF824
:1045300041EC190B9FED0C0B53EC102B0CF090FF82
:1045400041EC180B0DF052F80F498866217A0902E8
:1045500009B2627A41EA02000CF0F4FF41EC190B57
:1045600014E000006E040020FCA9F1D24D62503F1F
:1045700088280020102B00205C0400205D0400200F
:10458000680400204C290020540700201FED0A0B6E
:1045900053EC102B0CF064FF41EC180B0DF026F8D7
:1045A000FB494866A17A090209B2E27A41EA0200AF
:1045B0000CF0C8FF41EC190B1FED150B53EC102B41
:1045C0000CF04EFF41EC180B0DF010F8F0490867A5
:1045D000217B090209B2627B41EA02000CF0B2FFC2
:1045E00041EC190B1FED200B53EC102B00E072E097
:1045F0000CF036FF41EC180B0CF0F8FFE44988672B
:10460000A17B090209B2E27B41EA02000CF09AFFA9
:1046100041EC190B1FED2C0B53EC102B0CF020FF71
:1046200041EC180B0CF0E2FFD9494867217C0902E4
:1046300009B2627C41EA02000CF084FF41EC190BE4
:104640001FED370B53EC102B0CF00AFF41EC180B4D
:104650000CF0CCFFCE49C1F88000A17C090209B260
:10466000E27C41EA02000CF06DFF41EC190B1FEDFA
:10467000420B53EC102B0CF0F3FE41EC180B0CF03A
:10468000B5FFC349C1F88800217D090209B2627DE6
:1046900041EA02000CF056FF41EC190B1FED4E0BE6
:1046A00053EC102B0CF0DCFE41EC180B0CF09EFFD1
:1046B000B749C1F88400B748807838B90120B549B6
:1046C0008870A078B4490870B4480570FCF720F8E9
:1046D0000120B3490880A078132854D12179090218
:1046E00009B2627941EA02000CF02CFF41EC190B8F
:1046F0001FED630B53EC102B0CF0B2FE41EC180BCA
:104700000CF074FFA249C1F89000A179090209B226
:10471000E27941EA02000CF015FF41EC190B1FEDA4
:104720006E0B53EC102B0CF09BFE41EC180B0CF0B5
:104730005DFF9749C1F89800217A090209B2627AAF
:1047400041EA02000CF0FEFE41EC190B1FED7A0B62
:1047500053EC102B0CF084FE41EC180B0CF046FFD0
:104760008B49C1F894008B48807838B90120894979
:104770008870A0788849087088480570FBF7C8FFE2
:10478000012087490880A07814280AD181488078C0
:1047900038B901207F498870A0787F4908707F4828
:1047A0000570A07815280AD17A48807838B9012098
:1047B00078498870A078784908707848057000BFFB
:1047C000FFF7E1BB10B504467648007838B9AA2C4B
:1047D00005D1012073490870734804705DE0714889
:1047E0000078012807D1AF2C05D102206D4908704F
:1047F0006D48447051E06B480078022807D1F12CD5
:1048000005DA0320674908706748847045E0654809
:10481000007803280CD1322C0ADA04206149087090
:104820006148C4706148047000206149087034E038
:104830005C480078042819D15C480078002815DD10
:104840005A480078401E594908705948007858491C
:104850000978491C564A1170001D53490C5453489D
:104860000078D0B905204F49087016E04D4800780F
:1048700005280FD100204B4908704D480078001DD5
:1048800049490C544A480078401DC1B24648FFF7D8
:1048900065FB02E000204349087010BD10B50446D6
:1048A0004448007838B9AA2C05D101204149087044
:1048B000414804705DE03F480078012807D1AF2CE3
:1048C00005D102203B4908703B48447051E039480B
:1048D0000078022807D1F12C05DA03203549087049
:1048E0003548847045E03348007803280CD1322CD9
:1048F0000ADA04202F4908702F48C4702F4804702A
:1049000000202F49087034E02A480078042819D183
:104910002A480078002815DD28480078401E2749DD
:1049200008702748007826490978491C244A1170E4
:10493000001D21490C5421480078D0B905201D499B
:10494000087016E01B48007805280FD1002019498F
:1049500008701B480078001D17490C54184800784F
:10496000401DC1B21448FFF7F9FA02E000201149D6
:10497000087010BD10B504461248007838B9AA2C4A
:1049800024D101200F4908700F4804707CE01DE01D
:1049900054070020102B00205C0400205D04002040
:1049A000680400207C040020662B00207A0400208C
:1049B0007B0400207F040020982B00207D04002031
:1049C0007E04002082040020CA2B0020E0480078EA
:1049D000012807D1AF2C05D10220DD490870DD4840
:1049E000447051E0DA480078022807D1F12C05DA4A
:1049F0000320D7490870D748847045E0D448007830
:104A000003280CD1322C0ADA0420D1490870D1488D
:104A1000C470D14804700020D049087034E0CC48FC
:104A20000078042819D1CC480078002815DDCA4840
:104A30000078401EC8490870C8480078C7490978FE
:104A4000491CC64A1170001DC2490C54C248007866
:104A5000D0B90520BE49087016E0BD480078052889
:104A60000FD10020BA490870BC480078001DB94930
:104A70000C54BA480078401DC1B2B648FFF76EFA30
:104A800002E00020B249087010BD30B52DED048B56
:104A900081B0B0EE408AF0EE608AB0EE419A002418
:104AA000AA222146641CAE4842542146641C42544A
:104AB0000B222146641C425400222146641C4254AD
:104AC0009FEDA80A28EE000ABDEEC00A10EE100AFB
:104AD00000B200909DF801202146641CA048425479
:104AE0009DF800202146641C42549FED9E0A28EE4A
:104AF000800ABDEEC00A10EE100A00B200909DF8C8
:104B000001202146641C964842549DF8002020460E
:104B1000611CCCB292490A549FED920A29EE000A18
:104B2000BDEEC00A10EE100A00B200909DF8012000
:104B30002046611CCCB28A490A549DF800202046C8
:104B4000611CCCB286490A54201FC8700025002081
:104B500005E08349095C2944CDB2411CC8B2A0429A
:104B6000F7DB2046611CCCB27D490D5421467C48C0
:104B7000FEF7A8F801B0BDEC048B30BDF8B50546D2
:104B80000E460024AA222146641C75484254214640
:104B9000641C425405222146641C425400222146D2
:104BA000641C425400959DF801202146641C425427
:104BB0009DF800202146641C425400969DF8012077
:104BC0002146641C42549DF800202146601CC4B25A
:104BD00063484254201F6249C8700027002005E046
:104BE0005F49095C3944CFB2411CC8B2A042F7DB2F
:104BF0002046611CCCB25A490F5421465848FEF752
:104C000061F8F8BD38B50024AA222146641C544836
:104C100042542146641C4254F1222146641C4254F1
:104C200000222146641C4254012000909DF801207E
:104C30002146641C4A4842549DF800202146641CC9
:104C40004254022000909DF801202146641C4448F3
:104C500042549DF800202046611CCCB240490A54C1
:104C6000032000909DF801202046611CCCB23C49F5
:104C70000A549DF800202046611CCCB238490A54E1
:104C8000042000909DF801202046611CCCB23449DC
:104C90000A549DF800202046611CCCB230490A54C9
:104CA000052000909DF801202046611CCCB22C49C3
:104CB0000A549DF800202046611CCCB228490A54B1
:104CC0002948008800EB8000400000B200909DF869
:104CD00001202046611CCCB221490A549DF80020D5
:104CE0002046611CCCB21E490A54204890ED020AAD
:104CF000DFED1F0A20EE200ABDEEC00A10EE100AFA
:104D000000B200909DF801202046611CCCB21449ED
:104D10000A549DF800202046611CCCB210490A5468
:104D2000201FC8700025002005E00D49095C2944BA
:104D3000CDB2411CC8B2A042F7DB2046611CCCB208
:104D400007490D5421460648FDF7BCFF38BD000059
:104D500082040020CA2B002080040020810400204F
:104D6000242B0020CDCCCC3DC03F00208C2A00203D
:104D700000401C460246002007E0FE4B1B5632F85E
:104D8000133021F81030431CD8B20828F5DB7047E7
:104D9000F949D1ED020A9FEDF91AF4EEC10AF1EEDC
:104DA00010FA7DD240F24C41884247DAF449B1F919
:104DB0000010491C01B3F3490978E9B1F049B1F990
:104DC000001000EE901AF8EEE00A9FEDEF1A41EEA7
:104DD000000AFDEEE00A10EE901A09B2E84A1180CE
:104DE0001146B1F90010B1F5C87F05DD0021E54A93
:104DF0001170491EE24A1180E2490978002965D103
:104E0000E249098840F26C72914207DDDF49498826
:104E1000914203DD0321DE4A117057E0DB494988E6
:104E200040F26C72914251DDD849098840F24C42FF
:104E300091424BDA0121D64A117047E0CE49D1EDBB
:104E4000030A9FEDD41AF4EEC10AF1EE10FA07DC62
:104E5000CF49097803292DD140F26C71884229DDB0
:104E6000C749B1F90010491C19B3C649097801BBFB
:104E7000C349B1F9001000EE901AF8EEE00A9FED78
:104E8000C61A41EE000AFDEEE00A10EE901A09B2D1
:104E9000BB4A11801146B1F9001040F2DC5200E02B
:104EA00011E0914212DD0121B64A1170891EB44A07
:104EB00011800BE0B249B1F90010491C31B9002151
:104EC000AF4A118002E00021AD4A118070473FB522
:104ED000F0EE401A0546AE480078012808D1AF49E7
:104EE0002846FFF747FF40F21360AD49088041E0D4
:104EF000A7480078022808D1A849AA48FFF73AFF36
:104F000040F25740A649088034E0A14800780328C1
:104F100030D1984890F90000A24931F810009F491B
:104F20000880944890F901009E4931F810009B498F
:104F30004880904890F9020035F8100088800846B3
:104F40008088B0F5AF6F09DD0846808840F2DC51FB
:104F5000884203DA40F2D25090498880854890F91F
:104F60000300904931F810008C49C88040F2CF709E
:104F70008B490880002420E2884830F8140040F66D
:104F8000C411884205DC854830F81400B0F5FA7F7A
:104F900007DA0120844908550020844921F81400CB
:104FA00012E0824830F81400401C804921F81400B7
:104FB000084630F81400C82806DD4FF4FA6021F8DE
:104FC000140000207849085571480078012807D05E
:104FD0006F480078022803D06D48007803287DD1FF
:104FE0007148005D00287AD16C4830F8140000B296
:104FF0002DF814006E4830F914006E4931F9141080
:1050000088426DDD6C48005DF0BB3DF914006949D4
:1050100031F91410401A00EE100AB8EEC01A6448B4
:1050200030F91400634931F91410401A00EE100AE7
:10503000B8EEC00AC1EE000A9FED571A9FED5F0A55
:1050400010EE810ABDEEC00A10EE100A00B210F593
:10505000FA7F01DA5A484FE03DF91400554931F919
:105060001410401A00EE100AB8EEC01A504830F979
:105070001400504931F91410401A00EE100AB8EE2D
:10508000C00AC1EE000A00E03AE09FED431A9FED2E
:105090004B0A10EE810ABDEEC00A10EE100A00B2F3
:1050A000B0F5FA7F02DD4FF4FA7025E03DF9140007
:1050B000404931F91410401A00EE100AB8EEC01A37
:1050C0003B4830F914003B4931F91410401A00EE06
:1050D000100AB8EEC00AC1EE000A02E0BAE0B5E07C
:1050E000B1E09FED2D1A9FED350A10EE810ABDEE5D
:1050F000C00A10EE100A00B2324921F81400A5E0EF
:105100003DF914002B4931F91410401A00EE100A31
:10511000B8EEC01A264830F91400264931F91410A7
:10512000401A00EE100AB8EEC00AC1EE000A9FED68
:105130001A1A9FED220A10EE810ABDEEC00A10EE87
:10514000100A00B210F5FA7F01DA1D4875E03DF94A
:105150001400184931F91410401A00EE100AB8EE84
:10516000C01A134830F91400124931F91410401ACA
:105170002AE00000860400202C2C00200000C8C378
:10518000CA040020C804002000401C46A8330020A8
:105190008F0400200000C84300007A449C2C0020AB
:1051A00084040020562B0020900400208C2C00202A
:1051B0009A040020AA040020BA0400200000FA4348
:1051C0000CFEFFFFFC2B002000EE100AB8EEC00A18
:1051D000C1EE000A1FED101A1FED080A10EE810A39
:1051E000BDEEC00A10EE100A00B2B0F5FA7F02DD83
:1051F0004FF4FA7021E03DF91400824931F914109E
:10520000401A00EE100AB8EEC01A7F4830F91400B8
:105210007C4931F91410401A00EE100AB8EEC00AA9
:10522000C1EE000A1FED241A1FED1C0A10EE810AC0
:10523000BDEEC00A10EE100A00B2404200B273493F
:1052400021F8140002E00020714908700020714923
:10525000087002E001206F4908709FED6F0A21EE8F
:10526000800A6E4880ED000A3DF9140000EE100A35
:10527000B8EEC00A6A4800EB8400D0ED000A30EEB8
:10528000600AB5EEC00AF1EE10FA0DDD3DF914002A
:1052900000EE100AB8EEC00A614800EB8400D0EDC1
:1052A000000A30EE600A0EE03DF9140000EE100A2C
:1052B000B8EEC00A5A4800EB8400D0ED000A30EE88
:1052C000600AB1EE400ADFED570AB4EEE00AF1EEF3
:1052D00010FA1DD24D4830F9140000EE100AB8EE55
:1052E000C00A4F4800EB8400D0ED000A70EE600A5F
:1052F0004B4800EB840090ED000A484890ED001AFE
:1053000001EE200A464800EB840080ED000A20E010
:105310003E4830F9140000EE100AB8EEC00A4048CA
:1053200000EB8400D0ED000A70EE600A3C4800EB10
:10533000840090ED000A394890ED001AB6EE002A7C
:1053400021EE021A01EE200A354800EB840080EDC0
:10535000000A3548007838B92D48007820B99FED0B
:10536000330A2F4880ED020A2D4800EB840090EDAF
:10537000000A2F4800EB8400D0ED000A30EE600AEE
:105380002C4800EB840080ED000A254800EB8400E7
:1053900090ED000A264800EB840080ED000A1B48CF
:1053A00030F9140000EE100AB8EEC00A224800EBF3
:1053B000840080ED000A601CC4B2082CFFF6DCAD4E
:1053C000E888B0EE610AFFF7E3FC1C480088401C47
:1053D00080B21A490880C82803DD002008801249DD
:1053E00008703FBD10490978032903D10021134AF1
:1053F000118070470C4908700021104A118000BFCD
:10540000F7E70000AA0400209A040020FC2B0020EB
:10541000C80400208E04002034337B42C4040020E2
:105420002C2C00200000C8428F0400200000FAC38A
:105430004C2C00206C2C00200C2C00209804002008
:1054400009F08AB97047002070470020704700209B
:1054500070470020704700207047002070470020F0
:1054600070470020704700207047002070470020E0
:10547000704700207047002070470020704709F0F7
:1054800092B97047002070470020704708F0D6BFDF
:105490007047000010B508F0D5F9012008F0DDF9DB
:1054A00010BD70B5024600200AE0145C864B1D78E2
:1054B0001B785B1C844E3370844B5C55431CD8B204
:1054C0008842F2DB70BD10B57F48007880490978CA
:1054D00088425BDD7C4800787D490978401A3F2886
:1054E0001BDB00207B4908703F207B4908700020AF
:1054F0000BE077490A780978491C754B1970734994
:105500008A5C754B411C5A54C8B23F28F1DB4022DB
:105510007149002009F02DFA9FE06E480078401C88
:105520006C490870084600786C4909788842F3D1C4
:105530000020684908706448007865490978401A75
:1055400065490870002015E05F490978604A1278C3
:10555000891A814208DD5E49097801445B4A525C40
:105560005D4B411C5A5403E000225B4B411C5A54D2
:10557000411CC8B23F28E7DB534800785449087003
:1055800040225549002009F0F4F966E04E480078C1
:105590004F490978884260DA4D480078C0F580703C
:1055A0004949097808443F281BDB00204949087015
:1055B0003F204949087000200BE045490A780978E6
:1055C000491C434B197041498A5C434B411C5A5456
:1055D000C8B23F28F1DB40223F49002009F0C9F959
:1055E0003BE03C480078401C3A4908700846007887
:1055F0003A490978884230D1002036490870344849
:105600000078404230490978084433490870002046
:1056100018E02F490978C1F580712B4A127811449E
:10562000814209DD2A4909780144C9B2274A525CFE
:10563000294B411C5A5403E00022274B411C5A5469
:10564000411CC8B23F28E4DB1F480078204908709D
:1056500040222149002009F08CF910BD10B5044604
:10566000012C02D0032C11D10EE059B923B1012B2A
:1056700005D0022B04D100E000BF402010BD00BFC8
:1056800000BF00BF00BF01E00120F7E700BF00201E
:10569000F4E72DE9F0470646884614469946089FE8
:1056A000022E02D0032E0CD10AE0012504E0605D39
:1056B000FFF788F8681CC5B22078A842F7DA00E046
:1056C00000BF00BFBDE8F087D7040020D02F002026
:1056D000D6040020D8040020D0300020D5040020BB
:1056E00010B505480BF00EFE022101EB4000C0B2E0
:1056F00010BD024870470000143100202D310020F9
:105700009FEDFA2A20EE822A62EE012AB7EE003AD5
:1057100083EE222AF7EE002A32EE222AB7EE003A72
:10572000C3EE022A90ED032A31EEC22A90ED003A30
:1057300032EE433A90ED002A02EE832A80ED002AF1
:1057400090ED032A31EEC22A22EE022A80ED012AD0
:1057500090ED012AD0ED002A90ED003A02EE832A66
:10576000B5EEC02AF1EE10FA02D1DFEDE12A0DE02C
:1057700090ED002A22EE023A90ED012AD0ED002AA7
:10578000D0ED003A02EEA32AC3EE022AF5EEC02ABB
:10579000F1EE10FA02D2DFEDD62A45E090ED012AB3
:1057A000D0ED002A90ED003A02EE832AB5EEC02A31
:1057B000F1EE10FA02D1DFEDCE2A0DE090ED002AD5
:1057C00022EE023A90ED012AD0ED002AD0ED003A07
:1057D00002EEA32AC3EE022AB7EE002AF4EEC22A92
:1057E000F1EE10FA02DDF7EE002A1DE090ED012A3D
:1057F000D0ED002A90ED003A02EE832AB5EEC02AE1
:10580000F1EE10FA02D1DFEDBA2A0DE090ED002A98
:1058100022EE023A90ED012AD0ED002AD0ED003AB6
:1058200002EEA32AC3EE022AC0ED022A90ED022A5C
:1058300022EE002ADFEDAD2A22EE222A22EE012AF4
:10584000F7EE002A82EE823AB7EE002A33EE022A01
:10585000B7EE003AC3EE022A90ED032A31EEC23AC7
:1058600090ED032A02EE832A80ED032A704730B5BB
:105870000C4615886D1CADB21580A54201DB0025D4
:105880001580158800EB8505D5ED000A158800EB1D
:10589000850585ED000A70EE601A01EE104AB8EE3B
:1058A000412A81EE821AD3ED001A31EE211A83EDDE
:1058B000001A93ED001AD3ED001A70EE611A9FEDF5
:1058C0008D2A02EE211A83ED001A30BD2DE9F04732
:1058D00004460E469C460027B94633461088401CB5
:1058E00080B21080984201DB00201080118810885F
:1058F00044F820C0581E884222DD19E054F82100E7
:1059000000EE900AB8EEE00A481C54F8200044F873
:105910002100FDEEC00A10EE900A01F1010A44F8E0
:105920002A000127481C81B2581E884200D106E097
:1059300054F821A0481C54F820008245DEDC00BF4A
:10594000002923DD1AE054F8210000EE900AF8EE59
:10595000E00AB0EE600A481E54F8200044F8210026
:10596000FDEEC00A10EE900AA1F1010A44F82A00E7
:105970004FF0FF37481E81B201B906E054F821A06C
:10598000481E54F820008245DDDB00BF108820B996
:10599000012F02D1581E10800CE0B2F800A0581E52
:1059A000824504D1781C10B90020108002E01088D4
:1059B000C01B108000EE903AF8EE600AB5EE001AB7
:1059C00060EE810AFCEEE00A10EE900A1FFA80F801
:1059D000002506E008EB050054F820008144681C0F
:1059E00085B203EBD37AB5EB6A0FF3DB9A4603EB90
:1059F000DA70401099FBF0F0BDE8F08770B504460E
:105A00000D461646D4ED020A60EEA00A94ED011A86
:105A1000D4ED011A41EE210AB0EE600AFCF78AFECD
:105A2000354880ED000AD4ED020A60EEA00A94ED3C
:105A3000001AD4ED001A41EE210AB0EE600AFCF71C
:105A400079FE2E4880ED000A94ED020AB5EEC00AF8
:105A5000F1EE10FA02D24FF0FF3000E001202849A9
:105A6000087095ED000A2448D0ED000A60EE200A87
:105A700094ED001A084690F9000000EE100AB8EE06
:105A8000C00A21EE000A95ED021A40EE410AC6ED69
:105A9000000A084690F9000000EE100AB8EEC00AAD
:105AA0001648D0ED000A20EE200AD5ED010A20EEBE
:105AB000200AD4ED010A95ED021A00EEC10A86ED26
:105AC000010A94ED000AD5ED000A20EE200AD4ED7B
:105AD000010A95ED011A00EE810AD4ED020A95ED56
