:020000040800F2
:10000000B8440020D11D0108B5010008DB1D01081E
:10001000B7010008BB010008BF0100080000000094
:10002000000000000000000000000000C301000804
:10003000C501000800000000E71D0108C701000815
:10004000EB1D0108EB1D0108EB1D0108EB1D01086C
:10005000EB1D0108EB1D0108EB1D0108EB1D01085C
:10006000EB1D0108EB1D0108EB1D0108EB1D01084C
:10007000EB1D0108EB1D0108EB1D0108EB1D01083C
:10008000EB1D0108EB1D0108EB1D0108EB1D01082C
:10009000EB1D0108EB1D0108EB1D0108EB1D01081C
:1000A000EB1D0108EB1D0108EB1D0108EB1D01080C
:1000B000EB1D0108D9010008E1010008EB1D010852
:1000C000EB1D0108EB1D0108EB1D0108EB1D0108EC
:1000D000EB1D01087B920008E9010008F10100080E
:1000E000EB1D0108EB1D0108EB1D0108EB1D0108CC
:1000F000EB1D0108EB1D0108EB1D0108EB1D0108BC
:10010000EB1D0108EB1D0108EB1D0108EB1D0108AB
:10011000EB1D0108F9010008EB1D0108EB1D0108AA
:10012000EB1D0108EB1D0108EB1D0108EB1D01088B
:10013000EB1D0108EB1D0108EB1D0108EB1D01087B
:10014000EB1D0108EB1D0108EB1D01083DA1000896
:10015000EB1D0108EB1D0108EB1D0108EB1D01085B
:10016000EB1D0108EB1D0108EB1D0108EB1D01084B
:10017000EB1D0108EB1D0108EB1D0108EB1D01083B
:10018000EB1D0108EB1D0108DFF80CD015F046FE51
:1001900000480047A1010008B844002000BFFEE766
:1001A00000F021F90249087001E000F0C7F8FCE70F
:1001B00000000020704700BFFEE700BFFEE700BF61
:1001C000FEE77047704710B50D480068401C0C49A9
:1001D000086006F051FD10BD10B506F042FF10BDDD
:1001E00010B507F048F810BD10B508F0C2FE10BDFC
:1001F00010B509F027F910BD10B508F07CFF10BD4F
:100200005C0500206E48C089401C6D49C8810846C5
:100210008088401C00B288800846C088401C00B21C
:10022000C88008460089401C00B208810846408901
:10023000401C00B2488108468089401C00B2888179
:1002400008460078012804D108464078401C4870D0
:1002500002E001205A490870704710B5012006F0ED
:100260004AFD03F0DDFC10BD10B52DED028B002022
:1002700006F041FD00EE100AB8EE400ADFED510A2B
:1002800080EE201AB0EE418A07F086FCB0EE480AF4
:1002900007F00CFF4C48D0ED063AB0EE633AD0EDD3
:1002A000053AF0EE632AD0ED043AB0EE632AD0EDC1
:1002B0000C3AF0EE631AD0ED0B3AB0EE631AD0EDC3
:1002C0000A3AF0EE630AF6EE003A68EE233AB0EE30
:1002D000630A3E4A3E493F4801F058FCB0EE480AE6
:1002E00001F0A9F83C48B0EE480A04F008FEBDEC65
:1002F000028B10BD10B52DED028B022006F0FBFC29
:1003000000EE100AB8EE400ADFED2E0A80EE201A49
:10031000B0EE418AB0EE480A00F0ACFBBDEC028BB7
:1003200010BD10B508F042FB10BD10B500F061FB28
:1003300010BD10B500240AF077FC10BD10B52048A0
:10034000007801283BD12548008800B22449088064
:10035000FFF783FF1A48B0F90400022804DB0020ED
:1003600017498880FFF780FF1548B0F90600052877
:1003700004DB00201249C880FFF7BCFF1048B0F929
:1003800008000A2804DB00200D490881FFF7C9FF97
:100390000B48B0F90A00142804DB00200849488102
:1003A000FFF7C3FF0648B0F90C00322804DB002039
:1003B00003498881FFF7BDFF00200149087010BD87
:1003C000F8060020002474499C33002024000020FB
:1003D000200000201C0000208C3300206C05002031
:1003E00002000020704710B54FF480600AF054FD01
:1003F00006F0E0FB07F011FA06F0D6FC4FF4C870E7
:1004000007F036F84FF4C87006F02AFC142007F005
:10041000A5FC08F0D1FA4FF4E13008F037FD4FF4B5
:10042000E13008F0B5FE00F037FA642006F018FC61
:100430004FF4E13008F091FF0AF0F0FB08F08AF881
:1004400080F001000249087006F090FC012010BD08
:10045000E005002038B50122F7A1F84813F0CAFEE4
:100460000446C4B100221146F3A014F0BCFE0446B9
:1004700014B14FF0FF3038BD0022EFA1EF4813F068
:10048000B9FE04463CB10022EBA1104613F0B2FEC7
:100490006FF00100EFE7EAA1EA4814F062FB0446BE
:1004A0003CB10022E4A1104613F0A4FE6FF002005C
:1004B000E1E70122E4A1E74813F0C7FE04463CB19E
:1004C0000022DDA1104613F095FE6FF00300D2E785
:1004D0006B464022E049DF4813F069FF044600986C
:1004E00078B3DC4814F0C2F90122DCA1D94813F03A
:1004F000ACFE04463CB10022CFA1104613F07AFEB8
:100500006FF00300B7E76B46C022D649D14813F01D
:100510004EFF0446009848B1CE4814F0A7F90022D7
:10052000C5A1104613F066FE0120A4E7C94814F0E7
:100530009DF90022C0A1104613F05CFE6FF003008D
:1005400099E7FFE7C34814F091F90022BAA11046D9
:1005500013F050FE6FF004008DE738B50022B6A10D
:10056000B64813F047FE0446C4B100221146B2A0BB
:1005700014F039FE044614B14FF0FF3038BD0022AC
:10058000ADA1AE4813F036FE04463CB10022AAA14C
:10059000104613F02FFE6FF00100EFE7A8A1A94865
:1005A00014F0DFFA04463CB10022A3A1104613F078
:1005B00021FE6FF00200E1E70A22A3A1A54813F093
:1005C00044FE04463CB100229BA1104613F012FEEB
:1005D0006FF00300D2E76B4640229F499D4813F01D
:1005E000DFFF044674BB9B4814F040F90A229BA12C
:1005F000984813F02AFE04463CB100228EA1104612
:1006000013F0F8FD6FF00300B8E76B46C022954980
:10061000904813F0C5FF04464CB98E4814F026F9F3
:10062000002285A1104613F0E5FD0120A6E78948C8
:1006300014F01CF9002280A1104613F0DBFD6FF0CE
:1006400003009BE7834814F011F900227AA11046B9
:1006500013F0D0FD6FF0040090E710B582487E4B98
:10066000D3E900219B68C0E90E1342637A4BD3E9BA
:1006700003215B69C0E9111302647C48764B18338F
:100680000ECB08300EC0784A734B24330BCB583254
:100690000BC2714890ED0D0A734880ED190A6E483F
:1006A00090ED0E0A704880ED1A0A71486D4C1ECC10
:1006B00054301EC064386B49D1E905340A69C969F0
:1006C000C0E91A3442660167664BD3E909141A6A15
:1006D000DB6AC0E91F43C0E91D216648614BD3E9CD
:1006E0000C41D3E90E23C0E91541C0E917235D4948
:1006F000D1E911430A6CC96CC0E91A43426601672B
:100700005849D1E91434D1E91621C0E91D34C0E9B2
:100710001F2110BD10B500F09BF905F00BFA10BDBC
:1007200010B59FED550A4F4880ED040A9FED520A1F
:1007300080ED000AB7EE000A80ED080A9FED4F0A2F
:1007400080ED060A9FED4D0A80ED020A9FED4B0AEF
:1007500080ED0A0A9FED4A0A80ED050A9FED480ADE
:1007600080ED010AB0EE000A80ED090AB7EE000A3A
:1007700080ED070AB7EE000A80ED030AB7EE000A23
:1007800080ED0B0AB6EE000A80ED100AB6EE000A04
:1007900080ED0C0A9FED3B0A80ED140A9FED3A0AAA
:1007A00080ED120A9FED380A80ED0E0A9FED360AA1
:1007B00080ED160A9FED350A80ED110A9FED330A90
:1007C00080ED0D0A9FED2D0A80ED150AB7EE000AA7
:1007D00080ED200AB7EE000A80ED220AB7EE000A8B
:1007E00080ED210AB7EE000A80ED240AB7EE000A78
:1007F00080ED260AB7EE000A80ED250A9FED240A57
:1008000080ED180AB7EE000A80ED1A0AB7EE000A6A
:1008100080ED190AB1EE040A80ED1C0A9FED1D0A55
:1008200080ED1E0AB6EE000A80ED1D0AFFF715FFE7
:10083000FFF770FF10BD0000303A000008080020EC
:100840002F0000006028002073656E736F722E62A7
:10085000696E000038180020080700207069642EB7
:1008600062696E00480700209C330020B405002018
:100870007C280020402900209A99193FCDCCCC3DFE
:10088000CDCC0C40CDCC4C3FCDCC4C3D9A99993E33
:100890006666E63F8FC2F53C10B5012260496148AB
:1008A0000AF0D1FA5E480078012809D140225E4959
:1008B0005E480AF0C8FA4FF400715D480BF063FA25
:1008C000FFF72EFFFFF7C9FEFFF724FF10BD10B59D
:1008D0000446584894E80E0034300EC0524894E85C
:1008E0000E000EC0534890ED190A4F4880ED0D0AD6
:1008F000FFF733FE10BD10B504464E4894E80E00D5
:1009000040300EC0484894E80E000C300EC04948F4
:1009100090ED1A0A444880ED0E0AFFF71EFE10BD46
:1009200010B5044601203E490870434894E80E0083
:1009300008300EC03C4894E80E0018300EC0FFF797
:100940000CFE0122364937480AF029FA402236497E
:1009500036480AF024FA10BD10B50446354894E82C
:100960000E0058300EC0304894E80E0024300EC0FF
:10097000FFF7F3FD10BD10B530483149D1E9163409
:100980004A6D096E80E81C00C16001462C48D0E920
:100990001A34426E006FC1E905340A61C861284803
:1009A000D0E91E34426FD0F88000C1E909340A62F0
:1009B000C8620A46234CD4E91530D4E91714C2E9B9
:1009C0000E14C2E90C3010461E49D1E91942D1E992
:1009D0001B31C0E91042C0E912311A49D1E91D4268
:1009E000D1E91F31C0E91442C0E91631FFF7B5FD66
:1009F00010BD10B51448008820B113480088401C71
:100A000011490880104800883C2807DD00200E4965
:100A100008800E48007808B9FFF7ADFF10BD000050
:100A20000500002000000408080700200000060858
:100A3000000402409C330020B40500204807002039
:100A40007C2800204029002068040020C8040020E1
:100A5000B7EE000AFC4880ED180AB7EE000A80EDF8
:100A60001C0AB7EE000A80ED200A9FEDF80A80ED1F
:100A7000300A704710B52DED0E8BB0EE408AF44869
:100A8000D0ED000AB0EE600AB7EE001AF1EE040AEB
:100A900001F0F5FFDFEDEF0A80EE201AB3EE0E0A4B
:100AA00021EE000AEC4880ED000AE948D0ED010A89
:100AB000F1EE600AB0EE600AB7EE001AF1EE040A39
:100AC00001F0DDFFDFEDE30A80EE201AB3EE0E0A3F
:100AD00021EE000AE04880ED010AE048007818BBEA
:100AE000DB48D0ED030AB0EE600AB1EE041ADFED88
:100AF000DC0A01F0DFFFDFEDD70A80EE201A9FED60
:100B0000D90A21EE000ABDEEC00A10EE100A00B2AA
:100B100000EE100AF8EEC00ACF4890ED020A00EE8F
:100B2000880A80ED020A36E0CB4890ED020ACE48F2
:100B3000D0ED000A30EEC00A10EE101A084614F08C
:100B4000EAFF41EC1C0B18EE100A14F0E4FF41EC34
:100B50001E0B9FEDC60B53EC102B14F059FF41EC0C
:100B60001D0B53EC1C2B14F053FF41EC1A0BBA482D
:100B700090ED020A10EE101A084614F0CCFF41EC7A
:100B80001B0B53EC1A2B14F09CFE41EC190B15F0C7
:100B900005F8B1498860B048D0ED020AB0EE600AAD
:100BA00001F0D6FFAC4880ED020AB248D0ED000A51
:100BB000A94890ED001A70EE810AAF4890ED001A36
:100BC00070EEC10AB0EE600A01F0C2FFAB4880EDE2
:100BD000000AA848D0ED010A9F4890ED011A70EE76
:100BE000810AA74890ED001A70EEC10AB0EE600AC3
:100BF00001F0AEFFA14880ED010A9E48D0ED020A47
:100C0000954890ED021A70EE810A974890ED001A0F
:100C100070EEC10AB0EE600A01F09AFF974880EDCD
:100C2000020A90ED000AB5EEC00AF1EE10FA02DDFC
:100C300090ED000A04E0914890ED000AB1EE400A00
:100C4000F3EE0E0A80EE201A8C4880ED2D1A90EDFE
:100C5000010AB5EEC00AF1EE10FA02DD90ED010ACC
:100C600004E0864890ED010AB1EE400AF3EE0E0A68
:100C700080EE201A814880ED2E1A90ED020AB5EE22
:100C8000C00AF1EE10FA02DD90ED020A04E07B48A2
:100C900090ED020AB1EE400AF3EE0E0A80EE201A41
:100CA000764880ED2F1ADFED770A80EE880AD0EDC6
:100CB000000A90ED031A70EEC10A90ED161AF2EEDA
:100CC000041A21EE211A60EE810A20EE200A80ED3E
:100CD0000C0ADFED6C0A80EE880AD0ED010A90ED77
:100CE000041A70EEC10A90ED1A1AF2EE041A21EEFF
:100CF000211A60EE810A20EE200A80ED0D0ADFED58
:100D0000610A80EE880AD0ED020A90ED051A70EEB5
:100D1000C10A90ED1E1AF2EE041A21EE211A60EEBD
:100D2000810A20EE200A80ED0E0A90ED170AD0ED20
:100D3000000A60EE200A90ED060A00EE880A80EDB7
:100D4000060A90ED1B0AD0ED010A60EE200A90ED34
:100D5000070A00EE880A80ED070A90ED1F0AD0ED21
:100D6000020A60EE200A90ED080A00EE880A80ED83
:100D7000080A454890ED000AF6EE000A20EE200A27
:100D8000F3EE0E0A20EE200A3C4880ED090A3E48A8
:100D900090ED000AF6EE000A20EE200AF3EE0E0AAD
:100DA00020EE200A354880ED0A0A374890ED000A07
:100DB000F6EE000A20EE200AF3EE0E0A20EE200ADC
:100DC0002E4880ED0B0A90ED060AD0ED090AF1EEEF
:100DD000600AB4EEE00AF1EE10FA04D290ED090ACE
:100DE000B1EE400A0FE0254890ED060AD0ED090A61
:100DF000B4EEE00AF1EE10FA02DD90ED090A02E02D
:100E00001E4890ED060A1D4880ED060A90ED070A7F
:100E1000D0ED0A0AF1EE600AB4EEE00AF1EE10FA43
:100E200004D290ED0A0AB1EE400A32E0134890ED88
:100E3000070AD0ED0A0AB4EEE00AF1EE10FA25DD59
:100E400090ED0A0A25E000007C280020CDCC4C3E25
:100E5000202C00200000FA43042A00200C0000206F
:100E60000000000000001643240000201F85EB5105
:100E7000B81E0940102A00201C0000204029002034
:100E8000200000200AD7A33B10000020FE4890ED70
:100E9000070AFD4880ED070A90ED080AD0ED0B0A1D
:100EA000F1EE600AB4EEE00AF1EE10FA04D290ED31
:100EB0000B0AB1EE400A0FE0F34890ED080AD0EDBE
:100EC0000B0AB4EEE00AF1EE10FA02DD90ED0B0A27
:100ED00002E0ED4890ED080AEB4880ED080A90ED3D
:100EE000000A80ED030A90ED010A80ED040A90EDFE
:100EF000020A80ED050A90ED000ADFEDE40AB4EE87
:100F0000E00AF1EE10FA02D29FEDE00A0FE0DE48AF
:100F100090ED000ADFEDDE0AB4EEE00AF1EE10FA21
:100F200002DD9FEDDB0A02E0D74890ED000AD648CB
:100F300080ED000A90ED010ADFEDD40AB4EEE00A7C
:100F4000F1EE10FA02D29FEDD10A0FE0CE4890EDFB
:100F5000010ADFEDCF0AB4EEE00AF1EE10FA02DD8D
:100F60009FEDCB0A02E0C84890ED010AC64880ED2B
:100F7000010A90ED020ADFEDC50AB4EEE00AF1EED7
:100F800010FA02D29FEDC10A0FE0BF4890ED020AAD
:100F9000DFEDBF0AB4EEE00AF1EE10FA02DD9FEDDC
:100FA000BC0A02E0B84890ED020AB74880ED020A98
:100FB00090ED000AD0ED0C0A30EE200AD0ED060AC2
:100FC00030EE200AD0ED150A20EE200A80ED120A3C
:100FD00090ED010AD0ED0D0A30EE200AD0ED070A9F
:100FE00030EE200AD0ED190A20EE200A80ED130A17
:100FF00090ED020AD0ED0E0A30EE200AD0ED080A7C
:1010000030EE200AD0ED1D0A20EE200A80ED140AF1
:10101000BDEC0E8B10BD10B52DED048B8AB0F0EE3B
:10102000408AB0EE609AB0EE418A9FED9A0AB4EE23
:10103000C08AF1EE10FA02D29FED960A0BE09FED06
:10104000960AB4EEC08AF1EE10FA02DD9FED920A24
:1010500001E0B0EE480AB0EE408AB1EE680A30EE28
:10106000090A30EE080A8DED040A38EE890A30EEDE
:10107000480A8DED050A38EEC90A30EE080A8DEDF2
:10108000060AB1EE680A30EE490A30EE480A8DEDE4
:10109000070A002429E004A800EB840090ED000A70
:1010A000DFED7E0AB4EEE00AF1EE10FA02D29FED17
:1010B0007B0A13E004A800EB840090ED000ADFED4A
:1010C000780AB4EEE00AF1EE10FA02DD9FED740A40
:1010D00004E004A800EB840090ED000A04A800EBF3
:1010E000840080ED000A601CC4B2042CD3DB9DEDAB
:1010F000040A8DED000A9DED050A8DED010A9DEDB6
:10110000060A8DED020A9DED070A8DED030ADDED5D
:10111000000A644890ED000A634890ED001A01EE61
:10112000200A624880ED000ADDED010A5D4890ED7D
:10113000000A5D4890ED001A01EE200A5B4880ED40
:10114000010ADDED020A574890ED000A564890ED7D
:10115000001A01EE200A554880ED020ADDED030A6F
:10116000504890ED000A504890ED001A01EE200A18
:101170004E4880ED030A4E48007800285FD04D4865
:10118000007870BB002429E0484800EB840090ED13
:10119000000ADFED490AB4EEE00AF1EE10FA02D2DD
:1011A0009FED450A13E0414800EB840090ED000AF2
:1011B000DFED3B0AB4EEE00AF1EE10FA02DD9FED3E
:1011C000380A04E0394800EB840090ED000A374803
:1011D00000EB840080ED000A601CC4B2042CD3DB59
:1011E0003AE0FFE7002427E0304800EB840090ED70
:1011F000000AB5EEC00AF1EE10FA02D21FEDE80ABD
:1012000013E02A4800EB840090ED000ADFED240A89
:10121000B4EEE00AF1EE10FA02DD9FED210A04E0DF
:10122000224800EB840090ED000A204800EB840087
:1012300080ED000A601CC4B2042CD5DB0CE0002455
:1012400008E01FEDF90A194800EB840080ED000A60
:10125000601CC4B2042CF4DB144890ED000ABDEE0F
:10126000C00A10EE100A00B2ADF820000F4890ED51
:10127000010ABDEEC00A10EE100A00B2ADF822005D
:101280000A4890ED020A19E0402900200000B4C28B
:101290000000B4420000C8C30000C84300007AC484
:1012A00000007A440800002010000020502A00208E
:1012B000C80400200C00002000004843BDEEC00A16
:1012C00010EE100A00B2ADF82400FE4890ED030ABB
:1012D000BDEEC00A10EE100A00B2ADF826004FF4C1
:1012E0007A72002108A806F032FA0AB0BDEC048B2D
:1012F00010BD10B52DED028BB0EE408AF24890ED96
:10130000020ADFEDF20A30EE200AF14880ED000A11
:10131000F04890ED000A5FED200A80EE201AEE48BA
:1013200090ED000A71EE400A9FEDEC0A28EE001ADB
:1013300090ED000A01EE200A80ED000A90ED000A0F
:10134000B5EEC00AF1EE10FA02D29FEDE50A0FE009
:10135000E14890ED000AF7EE000AB4EEE00AF1EE83
:1013600010FA02DDB7EE000A02E0DB4890ED000A59
:10137000DC4880ED000AD64890ED000ADFEDDA0A7D
:10138000B4EEE00AF1EE10FA03D20120D74908705A
:1013900002E00020D5490870D5480078E8B9CC486B
:1013A00090ED000AB5EEC00AF1EE10FA02D29FED00
:1013B000CC0A0FE0C64890ED000ADFEDCE0AB4EE8D
:1013C000E00AF1EE10FA02DD9FEDCA0A02E0C04821
:1013D00090ED000ABE4880ED000AB7EE001AC6483C
:1013E0000078BB49D1ED000AB0EE480A04F022FCB7
:1013F000B84880ED000A90ED000AB5EEC00AF1EEA3
:1014000010FA02D29FEDB60A0FE0B24890ED000A42
:10141000DFEDBA0AB4EEE00AF1EE10FA02DD9FED5C
:10142000B70A02E0AB4890ED000AAA4880ED000A36
:10143000BDEC028B10BD00B52DED028B83B0B0EE7C
:10144000408AAF4890ED120AF3EE0E0A80EE201AA1
:101450009FEDAC0A21EE000A8DED000AD0ED130AD3
:10146000B3EE0E1A80EE810ADFEDA60A20EE200A06
:101470008DED010A90ED140AF3EE0E0A80EE201AAB
:101480009FEDA10A21EE000A8DED020A9DED000AF2
:101490009E4880ED000A9DED010A80ED010A9DED58
:1014A000020A80ED020A90ED000ADFED990AB4EE1F
:1014B000E00AF1EE10FA02D29FED950A0FE0934890
:1014C00090ED000ADFED8F0AB4EEE00AF1EE10FABB
:1014D00002DD9FED8C0A02E08C4890ED000A8B48FB
:1014E00080ED000A90ED010ADFED890AB4EEE00A12
:1014F000F1EE10FA02D29FED860A0FE0834890EDDC
:10150000010ADFED800AB4EEE00AF1EE10FA02DD26
:101510009FED7C0A02E07D4890ED010A7B4880ED5A
:10152000010A90ED020ADFED7B0AB4EEE00AF1EE6B
:1015300010FA02D29FED770A0FE0744890ED020A8C
:10154000DFED710AB4EEE00AF1EE10FA02DD9FED74
:101550006E0A02E06D4890ED020A6C4880ED020AC6
:10156000DFED6D0A80EE880A6C48D0ED0A0A6C48FF
:1015700090ED001A70EEC10A20EE200A694880ED55
:101580000F0ADFED650A80EE880A6448D0ED0B0A89
:10159000F1EE600A624890ED011A70EEC10A20EE89
:1015A000200A604880ED100ADFED5B0A80EE880AB1
:1015B0005A48D0ED0C0AF1EE600A594890ED021A33
:1015C00070EEC10A20EE200A564880ED110A4F48FD
:1015D00090ED000A5148D0ED0A0A30EE600AF7EEAD
:1015E000000A20EE200A4F4880ED000A474890ED9F
:1015F000010A4A48D0ED0B0A30EE200AF7EE000A45
:1016000020EE200A474880ED010A404890ED020A8A
:101610004248D0ED0C0A30EE200AF7EE000A20EE28
:10162000200A404880ED020A90ED000AB5EEC00A9B
:10163000F1EE10FA02DD90ED000A04E0394890ED79
:10164000000AB1EE400ADFED2F0A80EE201A35487D
:1016500080ED2D1A90ED010AB5EEC00AF1EE10FAF8
:1016600002DD90ED010A04E02E4890ED010AB1EE92
:10167000400ADFED240A80EE201A2A4880ED2E1A57
:1016800090ED020AB5EEC00AF1EE10FA02DD90ED1F
:10169000020A04E0234890ED020AB1EE400ADFEDB1
:1016A0001A0A80EE201A1F4880ED2F1ADFED1A0A61
:1016B00080EE880AD0ED160A90ED0F1AFAEE041AA1
:1016C00032E00000502A0020202C00200000FA43C5
:1016D0001400002008000020180000203433FB41D3
:1016E00000000000100000200000C8420C00002094
:1016F0008F0400200000AF43C804002000004844CD
:10170000402900200000964300001643282A0020AC
:10171000000096C3000016C36F12033B9C330020E9
:10172000342A00207C28002021EE211A60EE810A54
:1017300020EE200A80ED0C0A5FED090A80EE880A8F
:10174000D0ED1A0A90ED101AFAEE041A21EE211AC1
:1017500060EE810A20EE200A80ED0D0A5FED120A8C
:1017600080EE880AD0ED1E0A90ED111AFAEE041AE6
:1017700021EE211A60EE810A20EE200A80ED0E0A89
:1017800090ED000AD0ED0F0A30EE600AD0ED170A96
:1017900060EE200A90ED060A00EE880A80ED060A47
:1017A00090ED010AD0ED100A30EE600AD0ED1B0A70
:1017B00060EE200A90ED070A00EE880A80ED070A25
:1017C00090ED020AD0ED110A30EE600AD0ED1F0A4A
:1017D00060EE200A90ED080A00EE880A80ED080A03
:1017E000E24890ED000AF6EE000A20EE200A5FEDD6
:1017F0003B0A20EE200ADE4880ED090ADB4890ED26
:10180000000AF6EE000A20EE200A5FED420A20EE02
:10181000200AD74880ED0A0AD44890ED000AF6EE77
:10182000000A20EE200A5FED490A20EE200AD04887
:1018300080ED0B0A90ED060AD0ED090AF1EE600A80
:10184000B4EEE00AF1EE10FA04D290ED090AB1EE1E
:10185000400A0FE0C64890ED060AD0ED090AB4EE42
:10186000E00AF1EE10FA02DD90ED090A02E0C0484C
:1018700090ED060ABE4880ED060A90ED070AD0ED0D
:101880000A0AF1EE600AB4EEE00AF1EE10FA04D2B0
:1018900090ED0A0AB1EE400A0FE0B54890ED070A54
:1018A000D0ED0A0AB4EEE00AF1EE10FA02DD90ED96
:1018B0000A0A02E0AE4890ED070AAD4880ED070A3B
:1018C00090ED080AD0ED0B0AF1EE600AB4EEE00AE2
:1018D000F1EE10FA04D290ED0B0AB1EE400A0FE0DF
:1018E000A34890ED080AD0ED0B0AB4EEE00AF1EE41
:1018F00010FA02DD90ED0B0A02E09D4890ED080A17
:101900009B4880ED080A90ED300AF7EE000A30EEB1
:10191000C00AD0ED150A20EE200AD0ED000A90EDA5
:101920000C1A70EE810A90ED061A70EE810A60EED4
:10193000200A90ED301A8F48D0ED2D1A9FED8E0AB7
:101940009FED8E2A02EE210AB5EEC00AF1EE10FAE2
:1019500002D21FED9D0A1BE08648D0ED2D1A9FEDA7
:10196000860A9FED862A02EE210AF7EE001AB4EEEF
:10197000E10AF1EE10FA02DDB7EE000A08E07D4858
:10198000D0ED2D1A9FED7C0A9FED7C2A02EE210AF4
:1019900021EE000A7A4890ED001A40EE010AB0EEFE
:1019A000000A20EE800A724880ED120A90ED300A9B
:1019B000F7EE000A30EEC00AD0ED190A20EE200A38
:1019C000D0ED010A90ED0D1A70EE810A90ED071A24
:1019D00070EE810A60EE200A90ED301A6548D0ED75
:1019E0002E1A9FED650A9FED652A02EE210AB5EEDB
:1019F000C00AF1EE10FA02D21FEDC70A1BE05D48E3
:101A0000D0ED2E1A9FED5C0A9FED5C2A02EE210AB2
:101A1000F7EE001AB4EEE10AF1EE10FA02DDB7EECD
:101A2000000A08E05348D0ED2E1A9FED530A9FEDAF
:101A3000532A02EE210A21EE000A514890ED011AC4
:101A400040EE010AB0EE000A20EE800A484880ED20
:101A5000130A90ED300AF7EE000A30EEC00AD0ED1E
:101A60001D0A20EE200AD0ED020A90ED0E1A70EE4B
:101A7000810A90ED081A70EE810A60EE200A90ED5E
:101A8000301A3C48D0ED2F1A9FED3B0A9FED3B2AC0
:101A900002EE210AB5EEC00AF1EE10FA02D21FEDF5
:101AA000F00A1BE03348D0ED2F1A9FED330A9FED6B
:101AB000332A02EE210AF7EE001AB4EEE10AF1EE43
:101AC00010FA02DDB7EE000A08E02A48D0ED2F1A1E
:101AD0009FED290A9FED292A02EE210A21EE000A34
:101AE000274890ED021A40EE010AB1EE000A20EEFE
:101AF000800A1F4880ED140AB0EE480AFFF7F9FB90
:101B00001B48D0ED141AB0EE611AD0ED131AF0EEA6
:101B1000610AD0ED121AB0EE610AFFF77CFA1448A0
:101B200090ED000A80ED030A90ED010A80ED040AB1
:101B300090ED020A80ED050A124890ED0A0A12485B
:101B400080ED000A0F4890ED0B0AB1EE400A0E48F6
:101B500080ED010A0B4890ED0C0AB1EE400A0A48EC
:101B600080ED020A03B0BDEC028B00BD1000002026
:101B70007C280020402900206666E63ECDCC0C3F44
:101B8000282A00209C330020342A002070B52DED37
:101B9000108BB0EE408AB0EE60EAF0EE41EAB0EEB3
:101BA00061FAF0EE429AB0EE629AF0EE438A044691
:101BB0000D4616469FEDFE0A28EE000AF3EE040AD3
:101BC00020EE200AF0EE40AAFA48D0ED080A60EEB6
:101BD000A00A90ED091AD0ED091A41EE210A90ED04
:101BE0000A1AD0ED0A1A41EE210AB0EE600A00F09E
:101BF000B1FDF14880ED000A90ED000AB5EEC00A93
:101C0000F1EE10FA38D0EB48D0ED080AEA4890ED32
:101C1000001A80EE810AE948D0ED000A70EE600AF1
:101C200090ED000A0AEEA00A80ED000AE148D0ED2E
:101C3000090AE14890ED001A80EE810ADF48D0EDF4
:101C4000010A70EE600A90ED010A0AEEA00A80ED2A
:101C5000010AD848D0ED0A0AD74890ED001A80EE64
:101C6000810AD648D0ED020A70EE600A90ED020AB1
:101C70000AEEA00A80ED020AD14AD049D14803F009
:101C8000D5FECF48D0ED000A60EEA00A90ED011A13
:101C9000D0ED011A41EE210AB0EE600A00F05AFDC3
:101CA000C94880ED000AC64890ED000AB5EEC00AAA
:101CB000F1EE10FA36D090ED010AB5EEC00AF1EE61
:101CC00010FA2FD090ED020AB5EEC00AF1EE10FA2C
:101CD00028D0BD4890ED000AB5EEC00AF1EE10FA2A
:101CE00020D0B74890ED000AB748D0ED000A80EE4A
:101CF000201AB0EE41BAB24890ED010AB248D0EDD8
:101D0000000A80EE201AF0EE41BAF0EE4B0AB0EE77
:101D10006B0A00F064FCDFEDAD0A20EE200AAC484F
:101D200080ED000AAB4890ED010AD0ED030A20EEE9
:101D3000200AD0ED000A90ED021A00EEC10AF0EE82
:101D4000000A20EE200A9F4880ED000AA14890ED8D
:101D5000000AD0ED010A20EE200AD0ED020A90ED33
:101D6000031A00EE810AF0EE000A20EE200A9548E0
:101D700080ED010A974890ED010A20EE000AD0EDAF
:101D8000020A90ED021A00EE810AF7EE000AB0EEA8
:101D9000001A41EE400A8B48C0ED020A8E480078D6
:101DA00000285ED08C48007802280CD19FED8B0A69
:101DB0008B4880ED000A9FED890A80ED010A9FEDB6
:101DC000870A80ED020A864890ED000A7D4890ED72
:101DD000001ADFED841AF0EE690A41EEC10A9FEDA8
:101DE000821A60EE810A9FED811A00EE810A7C481A
:101DF00080ED000A90ED010A724890ED011ADFEDC6
:101E0000791AF0EE490A41EEC10A9FED771A60EEA9
:101E1000810A9FED761A00EE810A714880ED010A71
:101E200090ED020A674890ED021ADFED6E1AF0EEAF
:101E3000680A41EEC10A9FED6C1A60EE810A9FEDBF
:101E40006B1A00EE810A664880ED020A624800784B
:101E5000401C6149087008460078522801DB0020C8
:101E600008705F4890ED000A564890ED001ADFEDCB
:101E70005D1AF0EE690A41EEC10A9FED5B1A11EEA0
:101E8000200A5B4880ED000A554890ED010A4D4854
:101E900090ED011ADFED531AF0EE490A41EEC10A46
:101EA0009FED511A11EE200A514880ED010A4C486D
:101EB00090ED020A434890ED021ADFED4A1AF0EE67
:101EC000680A41EEC10A9FED481A11EE200A4848FF
:101ED00080ED020A90ED000A3A48D0ED000A20EEAB
:101EE000200A4348D0ED010A364890ED011A00EE71
:101EF000810A3F48D0ED020A324890ED021A00EE06
:101F0000810A3C4880ED020A69EEA90A49EE090AF5
:101F100048EEA80AB0EE600A00F01CFC364880EDDE
:101F2000000AF5EEC09AF1EE10FA02DDB0EE690A91
:101F300001E0B1EE690ADFED310AB4EEE00AF1EE3C
:101F400010FA7DD2B5EEC09AF1EE10FA02DDB0EED5
:101F5000490A01E0B1EE490ADFED280AB4EEE00AD1
:101F6000F1EE10FA6CD2F5EEC08AF1EE10FA02DD55
:101F7000B0EE680A01E0B1EE680ADFED200AB4EEC7
:101F8000E00AF1EE10FA5BD21B4890ED000AC9EEB0
:101F9000800AF0EE609A90ED000AC9EE000AB0EEF9
:101FA000609A90ED000AC8EE800AF0EE608A27E0A1
:101FB000C3F5C840B405002048000020F82A0020DE
:101FC000C82A0020802A00204400002033336542C4
:101FD00054000020280000204C00002000000000D9
:101FE000EC2A0020000080455C201940CDCC4C3C00
:101FF000E02A0020D42A00203800002000808945F3
:1020000090ED000ADFEDFE0AB4EEE00AF1EE10FA00
:1020100054DD90ED000A5FED070AB4EEE00AF1EE40
:1020200010FA4BD2F74890ED020A20EE090AD0EDE3
:10203000010A08EEE00AF44880ED030AF14800E0E6
:1020400033E090ED000A20EE280AD0ED020A09EEF6
:10205000E00AED4880ED040A1FED2B0A28EE000A85
:10206000F7EE000A20EE20AA90ED030AD0ED060A52
:1020700070EE600A90ED060A0AEE200A80ED060A6C
:1020800090ED040AD0ED070A70EE600A90ED070AA1
:102090000AEE200A80ED070A90ED060A80ED000A9C
:1020A00090ED070A80ED010A08E01FED340AD648DA
:1020B00080ED000A1FED370A80ED010AD24890ED4D
:1020C000090AD0ED000A1FED3B1A60EE810AB0EE5E
:1020D000001A60EE810A00EE880A80ED090A90ED90
:1020E0000A0AD0ED010A1FED431A60EE810AB0EE34
:1020F000001A60EE810A00EE880A80ED0A0A90ED6F
:102100000B0AD0ED020A1FED4B1A60EE810AB0EE09
:10211000001A60EE810A00EE880A80ED0B0A90ED4D
:10212000090ADFEDBA0AB4EEE00AF1EE10FA02D2C3
:102130009FEDB60A0FE0B44890ED090ADFEDB40A4E
:10214000B4EEE00AF1EE10FA02DD9FEDB10A02E012
:10215000AD4890ED090AAC4880ED090A90ED0A0AF5
:10216000DFEDAA0AB4EEE00AF1EE10FA02D29FED1A
:10217000A70A0FE0A44890ED0A0ADFEDA50AB4EE25
:10218000E00AF1EE10FA02DD9FEDA10A02E09E489E
:1021900090ED0A0A9C4880ED0A0A90ED0B0ADFEDEB
:1021A0009B0AB4EEE00AF1EE10FA02D29FED970A14
:1021B0000FE0954890ED0B0ADFED950AB4EEE00ACA
:1021C000F1EE10FA02DD9FED920A02E08E4890EDEA
:1021D0000B0A8D4880ED0B0A8A4890ED020AB5EE95
:1021E000C00AF1EE10FA2ADD8A48007898B18A48D0
:1021F000D0ED000A894890ED001A70EEC10AB0EEE9
:10220000600A00F0A5FCDFED860A20EE200A854872
:1022100080ED000A18E08048D0ED000A7F4890ED7C
:10222000001A70EEC10AB0EE600A00F091FCDFED1A
:102230007E0A20EE200A7B4880ED000A04E01FEDB4
:10224000990A784880ED000A6F4890ED000AD0EDB9
:10225000090A30EE200ADFED750A20EE200A6948EF
:1022600090ED001A6F48D0ED001AF0EE4E0A41EEE4
:10227000610A9FED6F1A00EE810A634880ED0C0A37
:1022800090ED010AD0ED0A0A30EE200ADFED670A70
:1022900020EE200A5B4890ED011A6248D0ED001A4A
:1022A000F0EE6E0A41EE610A9FED611A00EE810ABE
:1022B000554880ED0D0A5348D0ED020A594890ED7B
:1022C000001AB0EE4F0A00EEC10ADFED590A20EE07
:1022D000200A4D4880ED0E0A564890ED010AB1EEF5
:1022E000400A4948D0ED0C0A20EE200A5148D0EDB2
:1022F000020A454890ED0D1A00EEC10A4D48D0ED96
:10230000030A414890ED0E1A00EEC10A4948D0ED8B
:10231000000A40EE080AC0ED000A90ED000A3A48B3
:10232000D0ED0C0A20EE200A4248D0ED020A3648D1
:1023300090ED0E1A00EE810A3E48D0ED030A3248B5
:1023400090ED0D1A00EEC10A3A48D0ED010A40EEB8
:10235000080AC0ED010A90ED000A2B48D0ED0D0AE5
:1023600020EE200A3348D0ED010A274890ED0E1ADE
:1023700000EEC10A2F48D0ED030A234890ED0C1A55
:1023800000EE810A2B48D0ED020A40EE080AC0EDAB
:10239000020A90ED000A1C48D0ED0E0A20EE200A39
:1023A0002448D0ED010A184890ED0D1A00EE810A7C
:1023B0002048D0ED020A144890ED0C1A00EEC10A34
:1023C0001C48D0ED030A40EE080AC0ED030AD0ED28
:1023D000000A60EEA00A90ED011AD0ED011A41EE5C
:1023E000210A90ED021AD0ED021A41EE210A90ED79
:1023F000031AD0ED031A41EE210AB0EE600A1BE089
:1024000000806D45802A00208C2A002034FA0EBD01
:1024100034FA0E3DC804002054000020240000209F
:1024200090C2753D500000206766E63E9A99993E3D
:1024300034FA8E3C2800002000F08CF95C4880EDD6
:10244000000A5C4890ED000A5948D0ED000A80EE81
:10245000201A584880ED001A90ED010A5448D0ED3A
:10246000000A80EE201A534880ED011A90ED020A0E
:102470004F48D0ED000A80EE201A4E4880ED021A37
:1024800090ED030A4A48D0ED000A80EE201A494830
:1024900080ED031A90ED011A21EE011AD0ED021A17
:1024A00090ED022A01EE821AF7EE001AB0EE002A31
:1024B00042EE411AF0EE610A90ED001AD0ED011AD9
:1024C00021EE211AD0ED021A90ED032A01EE821AB4
:1024D000F0EE001A21EE211AB0EE410A00F07FF86A
:1024E000DFED350A20EE200A84ED000A314890ED38
:1024F000010AD0ED030A20EE200AD0ED000A90ED8B
:10250000021A00EEC10AF0EE000A20EE200A10EED8
:10251000101A084613F0FFFA41EC1D0BB0EE4D0AFD
:10252000F0EE6D0A13F030FDB0EE40CAF0EE60CA76
:102530009FED220B53EC102B51EC1C0B13F068FA9F
:1025400041EC1B0B13F02AFB28601A4890ED001A8F
:1025500021EE011AD0ED011A90ED012A01EE821A46
:10256000F7EE001AB0EE002A52EE011AF0EE610A00
:1025700090ED011AB1EE411AD0ED021A21EE211AA6
:10258000D0ED001A90ED032A01EEC21AF0EE001A07
:1025900021EE211AB0EE410A00F021F8DFED060A23
:1025A00020EE200A86ED000ABDEC108B70BD000005
:1025B0003C0000202800002033336542000000600A
:1025C00066A64C40F0EE400AF5EEC00AF1EE10FAB5
:1025D00002DBB0EE600A7047B1EE600AFBE700B5BF
:1025E000B0EE403AB0EE602AB5EEC03AF1EE10FA25
:1025F00004D0B5EEC02AF1EE10FA02D19FEDFB1A1D
:1026000099E0B0EE430AFFF7DDFFF0EE403AB0EE9E
:10261000420AFFF7D7FFF0EE402AF4EEE23AF1EE7D
:1026200010FA02D283EEA24A01E082EEA34A9FEDA5
:10263000F00AB4EEC04AF1EE10FA02D2F0EE441AFB
:102640002DE0DFEDEC0AB6EE000A14EE200AF0EE03
:10265000404ABDEEE40A10EE100A00EE100AB8EE91
:10266000C00A34EEC00AF0EE404AE34901EB8001B3
:1026700091ED000AF0EE401ADF4A411C02EB8101A5
:1026800091ED000A114601EB8001D1ED000A70EED8
:10269000600AB0EE610A00EEA40AF0EE401AF4EE11
:1026A000E32AF1EE10FA20DDB5EEC02AF1EE10FAC1
:1026B0000ADBB5EEC03AF1EE10FA02DBB0EE611AB9
:1026C00039E0B1EE611A36E09FEDCC1AB5EEC03AB2
:1026D000F1EE10FA04DB31EE610AB0EE401A2AE0A6
:1026E00031EEC10AB0EE401A25E0B5EEC03AF1EE87
:1026F00010FA10DB9FEDC21AB5EEC02AF1EE10FA07
:1027000004DB31EE610AB0EE401A14E031EE210A2A
:10271000B0EE401A0FE09FEDBB1AB5EEC02AF1EE05
:1027200010FA04DB31EE210AB0EE401A03E031EE7C
:10273000610AB0EE401AB0EE410A00BD00B5B0EE3D
:10274000405AF0EE605AF0EE450AB0EE650AFFF727
:1027500046FF00BDB0EE401AB7EE080AB0EE402AC0
:10276000B6EE000A21EE000AF0EE401AF0EE410A41
:1027700010EE900AA449A1EB600000EE900A61EE11
:10278000A02AB7EE080A02EEE00A20EE200AF0EED8
:10279000400A61EEA02AB7EE080A02EEE00A20EE37
:1027A000200AF0EE400A21EE200A704710B52DED08
:1027B0000A8BB0EE409AF0EE609A9FED940B53ECCA
:1027C000102B51EC190B13F0B9F918D29FED910BA6
:1027D00053EC102B51EC190B13F01AF941EC1B0BB5
:1027E0009FED8E0B53EC102B13F06BF841EC1A0B92
:1027F00053EC192B13F00CF941EC180B17E09FED7B
:10280000850B53EC102B51EC190B13F001F941EC33
:102810001B0B9FED820B53EC102B13F0F6F841ECE1
:102820001A0B53EC192B13F0F3F841EC180B9FED36
:10283000770B53EC102B51EC180B13F07FF920D2CF
:102840009FED780B53EC102B51EC180B13F039F86B
:1028500041EC1C0B9FED750B53EC102B13F0D8F8CB
:1028600041EC1B0B9FED6F0B53EC102B13F029F871
:1028700041EC1A0B53EC182B13F0CAF841EC180B6F
:102880001FE09FED680B53EC102B51EC180B13F06D
:10289000B9F841EC1C0B9FED670B53EC102B13F0B8
:1028A000B7F841EC1B0B9FED5F0B53EC102B13F0B3
:1028B00008F841EC1A0B53EC182B13F0A9F841EC73
:1028C000180BB0EE480AF0EE680ABDEC0A8B10BD9A
:1028D00010B52DED068BB0EE408AF0EE608A012433
:1028E0009FED560B53EC102B51EC180B13F03EF9E7
:1028F0000AD89FED520B53EC102B51EC180B13F030
:1029000081F841EC180BA41E204613F0F3F841ECBB
:10291000190BB0EE480AF0EE680AFFF747FFB0EE79
:1029200040AAF0EE60AA53EC192B51EC1A0B13F0ED
:102930006FF841EC100BBDEC068B10BD10B52DED02
:10294000088BB0EE408AF0EE608A01249FED3D0BCB
:1029500053EC102B51EC180B12F0B3FF41EC180B99
:102960009FED360B53EC102B51EC180B13F0FEF8C7
:102970000AD8A41E9FED310B53EC102B51EC180B11
:1029800013F040F841EC180B204613F0B3F841EC7B
:102990001A0BB0EE480AF0EE680AFFF799FFB0EEA6
:1029A00040BAF0EE60BA53EC1A2B51EC1B0B13F04B
:1029B0002FF841EC190B13F0F1F800EE100ABDEC02
:1029C000088B10BDB0EE401AB5EEC01AF1EE10FA49
:1029D0003CDD31EE600AB5EEC00AF1EE10FA37D2F6
:1029E000DFED021AB0EE610A32E0000000000000E4
:1029F0008180803B0000804358000020DB0F49406D
:102A0000DB0FC93FDB0FC9BFDF59375F0000000094
:102A100000000000000000602FF0D93F00000060BF
:102A2000305FF43F000000000000F03F000000C0F5
:102A3000CCCCCCBF000000C0CCCCCC3FF1D4C85330
:102A4000FB210940F1D4C853FB21F93FB0EE410A04
:102A50007047B0EE401AB5EEC01AF1EE10FA0BD284
:102A600031EE200AB5EEC00AF1EE10FA06DD5FED98
:102A7000211AB0EE610A01E0B0EE410A7047F0EEB3
:102A8000401AF4EEE01AF1EE10FA09DD31EEC10A57
:102A9000B4EEE00AF1EE10FA0BD2B0EE600A08E0F4
:102AA00031EE810AB4EEE00AF1EE10FA01DDB0EE8B
:102AB000600A7047F0EE401AB1EE412A32EE202A49
:102AC000B4EEE12AF1EE10FA09D231EE202AB4EE8A
:102AD000E12AF1EE10FA02DDB0EE600A01E0B0EE9C
:102AE000610A704710B52DED028BB0EE408AF0EE12
:102AF000608A9FED730B53EC102B51EC180B13F005
:102B000035F80CD29FED700B53EC102B51EC180BD9
:102B100012F078FF41EC100BBDEC028B10BD9FED65
:102B20006C0B53EC102B51EC180B13F007F80AD276
:102B30009FED650B53EC102B51EC180B12F0C1FEFE
:102B400041EC100BE8E7B0EE480AF0EE680AE3E764
:102B5000F0EE400A9FED600AF4EEC00AF1EE10FAC2
:102B600004DD9FED5E0A30EEC00A70479FED5C0AFF
:102B7000F4EEC00AF1EE10FA04D29FED580A30EEDE
:102B8000800AF2E7B0EE600AEFE7F0EE400AF5EEF9
:102B9000C00AF1EE10FA02DDB0EE600A01E0B1EE1B
:102BA000600A90ED041AB4EEC10AF1EE10FA0CDDE1
:102BB000F5EEC00AF1EE10FA04D291ED040AB1EE7E
:102BC000400A704791ED040AFBE7F5EEC00AF1EE0A
:102BD00010FA02DDB0EE600A01E0B1EE600A90ED9D
:102BE000031AB4EEC10AF1EE10FA0CDDF5EEC00ADC
:102BF000F1EE10FA04D291ED030AB1EE400AE0E7DB
:102C000091ED030ADDE7F5EEC00AF1EE10FA02DD00
:102C1000B0EE600A01E0B1EE600A90ED021AB4EE87
:102C2000C10AF1EE10FA0CDDF5EEC00AF1EE10FA71
:102C300004D291ED020AB1EE400AC2E791ED020A18
:102C4000BFE7F5EEC00AF1EE10FA02DDB0EE600A61
:102C500001E0B1EE600A90ED011AB4EEC10AF1EEA6
:102C600010FA0CDDF5EEC00AF1EE10FA04D291ED87
:102C7000010AB1EE400AA4E791ED010AA1E7F5EEE1
:102C8000C00AF1EE10FA02DDB0EE600A01E0B1EE2A
:102C9000600A90ED001AB4EEC10AF1EE10FA0CDDF4
:102CA000F5EEC00AF1EE10FA04D291ED000AB1EE91
:102CB000400A86E791ED000A83E71FEDB40A80E73A
:102CC00000000000008066400000000000807640A8
:102CD00000000000008066C0000034430000B443E0
:102CE000000034C370B505460C462146F94806F08D
:102CF0007CF970BD70B504460D46AA20F5490870F0
:102D00004870EF2088700220C87008460471457131
:102D10000026002005E0EF49095C3144CEB2411C99
:102D2000C8B20628F7DBEB4886710721FFF7DAFF08
:102D300070BD70B504460D46AA20E649087048707B
:102D4000EE2088700220C870084604714571002684
:102D5000002005E0DF49095C3144CEB2411CC8B215
:102D60000628F7DBDB4886710721FFF7BBFF70BD44
:102D70002DE9F04105460E460024AA222146641C96
:102D8000D44842542146641C425405222146641C06
:102D9000425402222146641C42542146641C45547C
:102DA0002146641C46540027002005E0C949095CFF
:102DB0003944CFB2411CC8B2A042F7DB2046611CA7
:102DC000CCB2C4490F542146C24806F077FBBDE897
:102DD000F0812DE9F04F2DED028B81B005460E46B6
:102DE000B0EE408ADDE90EABDDE90C890024AA22B1
:102DF0002146641CB74842542146641C42540422B4
:102E00002146641C425400222146641C425421463F
:102E1000641C45542146641C4654CDF800809DF83E
:102E200001202146641C42549DF800202046611C6C
:102E3000CCB2A8490A54CDF800909DF80120204654
:102E4000611CCCB2A3490A549DF800202146601CA5
:102E5000C4B2A0484254CDF800A09DF801202046FD
:102E6000611CCCB29B490A549DF800202046611C8D
:102E7000CCB298490A54CDF800B09DF80120204604
:102E8000611CCCB293490A549DF800202046611C75
:102E9000CCB290490A54201FC8700027002005E0DA
:102EA0008C49095C3944CFB2411CC8B2A042F7DB5F
:102EB0002046611CCCB287490F542146854806F054
:102EC000FDFA01B0BDEC028BBDE8F08F70B52DEDC1
:102ED0000A8B82B00546B0EE408AF0EE608AB0EE12
:102EE000419AF0EE619AB0EE42AAF0EE62AAB0EE1C
:102EF00043BAF0EE63BAB0EE44CA0024AA222146D7
:102F0000641C744842542146641C425405F10F006D
:102F1000C2B22146641C6F48425400222146641C00
:102F200042549FED6D0A28EE000ABDEEC00A10EE75
:102F3000100A00B201909DF805202146641C6548E6
:102F400042549DF804202146641C42549FED620ABD
:102F500028EE800ABDEEC00A10EE100A00B2019001
:102F60009DF805202146641C5A4842549DF80420CF
:102F70002046611CCCB257490A549FED570A29EEEE
:102F8000000ABDEEC00A10EE100A00B201909DF8D2
:102F900005202046611CCCB24E490A549DF80420FD
:102FA0002046611CCCB24B490A549FED4B0A29EED6
:102FB000800ABDEEC00A10EE100A00B201909DF822
:102FC00005202046611CCCB242490A549DF80420D9
:102FD0002046611CCCB23F490A549FED3F0A2AEEBD
:102FE000000ABDEEC00A10EE100A00B201909DF872
:102FF00005202046611CCCB236490A549DF80420B5
:103000002046611CCCB233490A549FED330A2AEEA4
:10301000800ABDEEC00A10EE100A00B201909DF8C1
:1030200005202046611CCCB22A490A549DF8042090
:103030002046611CCCB227490A549FED270A2BEE8B
:10304000000ABDEEC00A10EE100A00B201909DF811
:1030500005202046611CCCB21E490A549DF804206C
:103060002046611CCCB21B490A549FED1B0A2BEE73
:10307000800ABDEEC00A10EE100A00B201909DF861
:1030800005202046611CCCB212490A549DF8042048
:103090002046611CCCB20F490A549FED0F0A2CEE5A
:1030A000000ABDEEC00A10EE100A00B201909DF8B1
:1030B00005202046611CCCB206490A549DF8042024
:1030C0002046611CCCB203490A54201FC870002658
:1030D000002009E0182B002000007A44FE49095C1A
:1030E0003144CEB2411CC8B2A042F7DB2046611C7D
:1030F000CCB2F9490E542146F748FFF7F3FD02B070
:10310000BDEC0A8B70BDF8B505460E460024AA2218
:103110002146641CF04842542146641C4254052256
:103120002146641C425400222146641C42540095EE
:103130009DF801202146641C42549DF80020214640
:10314000641C425400969DF801202146641C4254A0
:103150009DF800202146601CC4B2DF484254201F65
:10316000DD49C8700027002005E0DB49095C3944CF
:10317000CFB2411CC8B2A042F7DB2046611CCCB2E2
:10318000D5490F542146D448FFF7ACFDF8BD7FB5B3
:103190000024AA222146641CCF4842542146641CC4
:1031A000425406222146641C425400222146641CDB
:1031B00042549DF801202146641C42549DF8002091
:1031C0002146641C42549DF805202146641C42544B
:1031D0009DF804202046611CCCB2BF490A549DF8DA
:1031E00009202046611CCCB2BB490A549DF8082036
:1031F0002046611CCCB2B8490A549DF80D202046E7
:10320000611CCCB2B4490A549DF80C202146601CC4
:10321000C4B2B14842549DF821202046611CCCB272
:10322000AD490A549DF820202046611CCCB2AA4921
:103230000A549DF825202046611CCCB2A6490A54A8
:103240009DF824202046611CCCB2A3490A549DF865
:1032500029202046611CCCB29F490A549DF82820A1
:103260002046611CCCB29C490A549DF82D20204672
:10327000611CCCB298490A549DF82C202046611C50
:10328000CCB295490A54201FC8700025002005E0E3
:103290009149095C2944CDB2411CC8B2A042F7DB78
:1032A0002046611CCCB28C490D5421468A48FFF758
:1032B00019FD7FBD7FB50024AA222146641C8648E3
:1032C00042542146641C425403222146641C425449
:1032D00000222146641C42549DF801202146641CB2
:1032E00042549DF800202146641C42549DF805205C
:1032F0002146641C42549DF804202046611CCCB237
:1033000075490A549DF809202046611CCCB27249C7
:103310000A549DF808202046611CCCB26E490A541C
:103320009DF80D202046611CCCB26B490A549DF8D3
:103330000C202046611CCCB267490A549DF821201C
:103340002046611CCCB264490A549DF820202146D5
:10335000601CC4B2604842549DF825202046611C80
:10336000CCB25D490A549DF824202046611CCCB2A1
:1033700059490A549DF829202046611CCCB256496F
:103380000A549DF828202046611CCCB252490A54A8
:103390009DF82D202046611CCCB24F490A549DF85F
:1033A0002C202046611CCCB24B490A549DF8312098
:1033B0002046611CCCB248490A549DF83020204672
:1033C000611CCCB244490A549DF835202046611C4A
:1033D000CCB241490A549DF834202046611CCCB23D
:1033E0003D490A54201FC8700025002005E03A49D5
:1033F000095C2944CDB2411CC8B2A042F7DB20468B
:10340000611CCCB234490D5421463348FFF76AFCA5
:103410007FBD73B50024AA222146641C2E48425465
:103420002146641C425407222146641C4254002257
:103430002146641C42549DF803202146641C4254DA
:103440009DF802202146641C42549DF8012021462B
:10345000641C42549DF800202046611CCCB21E49D9
:103460000A549DF805202046611CCCB21A490A5422
:103470009DF804202046611CCCB217490A54201F35
:10348000C8700025002005E01349095C2944CDB22D
:10349000411CC8B2A042F7DB2046611CCCB20E49E9
:1034A0000D5421460C48FFF71DFC7CBD2DE9F84F5B
:1034B00005460E4617469846DDE90AAB0024AA22C7
:1034C0002146641C044842542146641C4254022292
:1034D0002146641C425401E0182B002000222146A2
:1034E000641C425400959DF801202146641C4254FE
:1034F0009DF800202146641C425400969DF801204E
:103500002146641C42549DF800202146601CC4B230
:10351000FE48425400979DF801202046611CCCB221
:10352000FA490A549DF800202046611CCCB2F749A4
:103530000A54CDF800809DF801202046611CCCB2D1
:10354000F2490A549DF800202046611CCCB2EF4994
:103550000A54CDF800A09DF801202046611CCCB291
:10356000EA490A549DF800202046611CCCB2E74984
:103570000A54CDF800B09DF801202146601CC4B269
:10358000E24842549DF800202146601CC4B2DF4846
:1035900042540C9800909DF801202046611CCCB24A
:1035A000DA490A549DF800202046611CCCB2D74964
:1035B0000A540D9800909DF801202046611CCCB261
:1035C000D2490A549DF800202046611CCCB2CF4954
:1035D0000A540E9800909DF801202046611CCCB240
:1035E000CA490A549DF800202046611CCCB2C74944
:1035F0000A54002000909DF801202046611CCCB2A6
:10360000C2490A549DF800202046611CCCB2BF4933
:103610000A54201FC8704FF00009002006E0BB4983
:10362000095C494401F0FF09411CC8B2A042F6DB25
:103630002046611CCCB2B54901F800902146B34840
:10364000FFF750FBBDE8F88F38B50024AA222146C9
:10365000641CAE4842542146641C4254F122214667
:10366000641C425400222146641C425401200090F4
:103670009DF801202146641CA44842549DF8002076
:103680002146641C4254022000909DF801202146EE
:10369000641C9E4842549DF800202046611CCCB218
:1036A0009A490A54032000909DF801202046611C8D
:1036B000CCB296490A549DF800202046611CCCB239
:1036C00092490A54042000909DF801202046611C74
:1036D000CCB28E490A549DF800202046611CCCB221
:1036E0008A490A54052000909DF801202046611C5B
:1036F000CCB286490A549DF800202046611CCCB209
:1037000082490A548248008800EB8000400000B2E1
:1037100000909DF801202046611CCCB27B490A54E0
:103720009DF800202046611CCCB278490A547948A3
:1037300090ED020ADFED780A20EE200ABDEEC00A05
:1037400010EE100A00B200909DF801202046611C86
:10375000CCB26E490A549DF800202046611CCCB2C0
:103760006A490A54201FC8700025002005E06749F7
:10377000095C2944CDB2411CC8B2A042F7DB204607
:10378000611CCCB261490D5421466048FFF7AAFA8A
:1037900038BD30B52DED048B81B0B0EE408AF0EE2F
:1037A000608AB0EE419A0024AA222146641C574840
:1037B00042542146641C42540B222146641C42544C
:1037C00000222146641C42549FED540A28EE000A50
:1037D000BDEEC00A10EE100A00B200909DF8012064
:1037E0002146641C494842549DF800202146641C2F
:1037F00042549FED4A0A28EE800ABDEEC00A10EE40
:10380000100A00B200909DF801202146641C3F4838
:1038100042549DF800202046611CCCB23B490A541A
:103820009FED3E0A29EE000ABDEEC00A10EE100A16
:1038300000B200909DF801202046611CCCB23349B3
:103840000A549DF800202046611CCCB22F490A542E
:10385000201FC8700025002005E02C49095C294480
:10386000CDB2411CC8B2A042F7DB2046611CCCB2ED
:1038700026490D5421462548FFF734FA01B0BDEC26
:10388000048B30BD2DE9FF412DED040B2DED048B94
:1038900082B0B0EE408AF0EE608AB0EE419A054602
:1038A0000E46174600240095AA222146641C17489C
:1038B00042542146641C425401222146641C425455
:1038C00000222146641C42549FED150A28EE000A8E
:1038D000BDEEC00A10EE100A00B201909DF805205E
:1038E0002146641C094842549DF804202146641C6A
:1038F00042549FED0B0A28EE800ABDEEC00A10EE7E
:10390000100A00B201909DF805200BE0182B002052
:10391000A43C0020802A002000401C46CDCCCC3D99
:103920000000C8422146641CFE4842549DF8042011
:103930002046611CCCB2FB490A541FED070A29EE50
:10394000000ABDEEC00A10EE100A00B201909DF808
:1039500005202146601CC4B2F24842549DF8042060
:103960002046611CCCB2EF490A549DF80320204642
:10397000611CCCB2EB490A549DF802202146601C20
:10398000C4B2E84842549DF801202046611CCCB2E4
:10399000E4490A549DF800202046611CCCB2E1495C
:1039A0000A542046611CCCB2DE490E542046611CEC
:1039B000CCB2DC490F549DF835202046611CCCB2B6
:1039C000D8490A549DF834202046611CCCB2D54910
:1039D0000A54201FC8704FF00008002006E0D149AB
:1039E000095C414401F0FF08411CC8B2A042F6DB6B
:1039F0002046611CCCB2CB4901F800802146C94861
:103A000005F08DFC02B0BDEC048B08B0BDE8F08180
:103A10002DE9F0412DED048B82B0B0EE408AF0EE3E
:103A2000608AB0EE419A05460E461746002400957E
:103A3000AA222146641CBB4842542146641C4254BD
:103A400001222146641C425400222146641C425437
:103A50001FED4D0A28EE000ABDEEC00A10EE100A56
:103A600000B201909DF805202146641CAD484254E7
:103A70009DF804202146641C42541FED570A28EE8D
:103A8000800ABDEEC00A10EE100A00B201909DF847
:103A900005202146641CA34842549DF8042020467A
:103AA000611CCCB29F490A541FED630A29EE000A3B
:103AB000BDEEC00A10EE100A00B201909DF805207C
:103AC0002046611CCCB297490A549DF80420204638
:103AD000611CCCB293490A549DF803202046611C16
:103AE000CCB290490A549DF802202046611CCCB209
:103AF0008C490A549DF801202046611CCCB28949AA
:103B00000A549DF800202146601CC4B285484254E6
:103B10002046611CCCB283490E542046611CCCB2B5
:103B200080490F54201FC8704FF00008002006E0A5
:103B30007C49095C414401F0FF08411CC8B2A04225
:103B4000F6DB2046611CCCB2764901F800802146A4
:103B50007448FFF7C7F802B0BDEC048BBDE8F081F4
:103B60007FB505460024AA222146641C6D484254B4
:103B70002146641C425400222146641C42542146C2
:103B8000641C42542146641C45549DF8052021467E
:103B9000641C42549DF804202146641C42549DF844
:103BA00009202046611CCCB25E490A549DF80820C9
:103BB0002046611CCCB25B490A549DF80D2020467A
:103BC000611CCCB257490A549DF80C202046611C58
:103BD000CCB254490A549DF821202046611CCCB235
:103BE00050490A549DF820202046611CCCB24D4912
:103BF0000A54201FC8700026002005E04949095CCE
:103C00003144CEB2411CC8B2A042F7DB2046611C51
:103C1000CCB244490E5421464248FFF763F87FBDB9
:103C200010B586B0404800784049097890FBF1F221
:103C300001FB12013D480078401E814202D1012063
:103C40003B494871384800783A49097890FBF1F2CD
:103C500001FB120137480078401E814202D1012049
:103C600033498871304800783349097890FBF1F284
:103C700001FB120130480078801E814202D10120F0
:103C80002B494874284800782C49097890FBF1F2B8
:103C900001FB120129480078401E814202D1012017
:103CA00023490871204800782549097890FBF1F2F2
:103CB00001FB120122480078401E814202D10120FE
:103CC0001B494873184800781E49097890FBF1F2A7
:103CD00001FB12011B480078801E814202D10120A5
:103CE0001349C873104800781749097890FBF1F21E
:103CF00001FB120114480078801E814202D101208C
:103D00000B490874084800781049097890FBF1F2D3
:103D100001FB12010D480078C01E814219D101201B
:103D2000034915E0182B00207004002071040020C6
:103D3000042B00207204002073040020740400206F
:103D40007504002076040020770400207804002009
:103D50008874F6480078F649097890FBF1F201FB87
:103D60001201F3480078001F814202D10120F1497D
:103D7000C874EE480078401CC0B2EC490870C828EE
:103D800001DD00200870EB48007838B1E94A51782D
:103D90001078FEF7CEFF0020E6490870E5488078ED
:103DA00048B10020E3498870E3480178E34800788F
:103DB000FEF7A0FF72E2DF48C07860B10020DD4965
:103DC000C8704FF4C87364224FF4967100900420B9
:103DD000FFF7C6FE62E2D748007928B30020D54934
:103DE0000871D748027800210846D64B93ED001A97
:103DF000D54BD3ED000AD54B93ED000AFFF708FE33
:103E0000D348008803B2CE480278D2480178002017
:103E1000CC4C94ED001ACC4CD4ED000ACB4C94ED74
:103E2000000AFFF72FFD39E2C248807CA8B10020CC
:103E3000C04988749FEDC81AC848B0F9000000EE68
:103E4000100AF8EEC00AC648B0F9000000EE100AE9
:103E5000B8EEC00AFFF79DFC20E2B648407C28B1CE
:103E60000020B4494874FFF7EFFB17E2B1484079EE
:103E7000E8B30020AF494871BA4890ED0A0ABDEE98
:103E8000C00A10EE100A02B2B64890ED090ABDEE63
:103E9000C00A10EE100A01B2B24890ED080ABDEE59
:103EA000C00A10EE100A00B2AF4B93ED090ABDEE46
:103EB000C00A10EE103A1BB2CDE90130CDE9031271
:103EC000A94890ED080ABDEEC00A10EE100A00B233
:103ED000A54C009094ED070ABDEEC00A10EE104A02
:103EE00023B2A14C94ED060ABDEEC00A00E015E035
:103EF00010EE104A22B29C4C94ED050ABDEEC00AA9
:103F000010EE104A21B2984C94ED040ABDEEC00A9E
:103F100010EE104A20B2FFF7C9FABFE18548807958
:103F200048B10020834988718948008881B2002007
:103F3000FFF76FFAB2E17F48407B78B300207D49FC
:103F4000487340F2DC528948C08900F2DC5080B2EC
:103F50008649898901F2DC5189B2CDE9030284489E
:103F600005920291C08883490988804CCDE90010F0
:103F7000648804F2DC54A3B27C4C248804F2DC5440
:103F8000A2B27A4CE48804F2DC54A1B2774CA48843
:103F900004F2DC54A0B2FFF78DF97FE1FFE765483A
:103FA000C07B48B300206349C87300900190029021
:103FB000714C039094ED030ABCEEC00A10EE104A57
:103FC000A3B26D4C94ED020ABCEEC00A10EE104A8A
:103FD000A2B2694C94ED010ABCEEC00A10EE104A80
:103FE000A1B2654C94ED000ABCEEC00A10EE104A76
:103FF000A0B2FFF7CCF851E14E48007C40B1002060
:104000004C4908744FF4E4717B20FFF77CF845E1DC
:104010004848C07958B300204649C8715748D0ED88
:104020001E4AB0EE644AD0ED1F4AF0EE643AD0ED7D
:104030001D4AB0EE643AD0ED1A4AF0EE642AD0ED93
:104040001B4AB0EE642AD0ED194AF0EE641AD0EDA6
:10405000164AB0EE641AD0ED174AF0EE640AD0EDBD
:10406000154AB0EE640A0120FEF730FF16E1314830
:10407000007A58B300202F4908724148D0ED1E4AFB
:10408000B0EE644AD0ED1F4AF0EE643AD0ED1D4A1E
:10409000B0EE643AD0ED1A4AF0EE642AD0ED1B4A35
:1040A000B0EE642AD0ED194AF0EE641AD0ED164A4B
:1040B000B0EE641AD0ED174AF0EE640AD0ED154A5E
:1040C000B0EE640A0220FEF701FFE7E01948407AEB
:1040D00058B30020174948722A48D0ED214AB0EE63
:1040E000644AD0ED224AF0EE643AD0ED204AB0EEB8
:1040F000643AD0ED1D4AF0EE642AD0ED1E4AB0EECF
:10410000642AD0ED1C4AF0EE641AD0ED194AB0EEE4
:10411000641AD0ED1A4AF0EE640AD0ED184AB0EEF7
:10412000640A0320FEF7D2FEB8E02DE07004002000
:1041300079040020042B00205D0400205C04002092
:10414000C804002024000020200000201C000020C3
:10415000A43C00208F0400200000C842620400201C
:1041600060040020B40500209C330020F02B0020C8
:104170008C33002084040020502A00207C2800205A
:104180004029002048070020FE48807AF8B100202E
:10419000FC498872FC48D0ED251AB0EE611AD0EDCA
:1041A000261AF0EE610AD0ED241AB0EE610A9FEDF6
:1041B000F74ADFEDF63A9FEDF53ADFEDF42A9FED91
:1041C000F32ADFEDF21A0420FEF780FE66E0ED48E8
:1041D000C07AC0B10020EB49C8729FEDEC4ADFED18
:1041E000EB3A9FEDEA3ADFEDE92A9FEDE82ADFEDB1
:1041F000E71A9FEDE61ADFEDE50A9FEDE40A0520D8
:10420000FEF764FE4AE0DF48007BC0B10020DD49D4
:1042100008739FEDDE4ADFEDDD3A9FEDDC3ADFED1E
:10422000DB2A9FEDDA2ADFEDD91A9FEDD81ADFEDF0
:10423000D70A9FEDD60A0620FEF748FE2EE0D148A9
:10424000C07C01282AD10020CE49C874C874D04847
:104250000078E8B1CF48B0F90020CF48B0F900109D
:10426000CE48B0F90000CE4BB3F900309FEDC70A3D
:10427000CDE90030CDE9021200231A46C948017881
:10428000C9480078FEF7A5FD0020C149087005E087
:10429000C4480178C4480078FEF76AFD06B010BD36
:1042A00070B52DED048B04460E460025002004E079
:1042B000215C2944CDB2411CC8B2711E8142F7DC99
:1042C000A01910F8010CA84202D0BDEC048B70BDFF
:1042D0002078AA2802D16078AF2800D0F5E7A0782E
:1042E000012822D12079012802D1B04908701CE0B0
:1042F0002079022803D10120AC49487015E02079CB
:10430000032804D10120A949087048700DE02079E4
:10431000042803D10120A649087006E0207921284D
:1043200002DB2079262800DD00BFA078022814D106
:104330002079012806D19349C871087248728872A1
:10434000C87208732079A02802D101208D49C87055
:104350002079A12801D1FCF7E3F9A078032836D110
:1043600090480078012802D0022001F053F820790B
:10437000617941EA00208F498880A079E17941EA9A
:1043800000208C49C880207A617A41EA002089495E
:104390000880A07AE17A41EA002086494880207BA3
:1043A000617B41EA002083490881A07BE17B41EAEF
:1043B000002080494881207C617C41EA00207D49C1
:1043C0008881A07CE17C41EA00207A49C881A078FC
:1043D000202802D1012074490870A078212802D138
:1043E000002071490870A078222802D120796D49F7
:1043F0000870A07824281ED10120654908706079D2
:10440000217940EA012000B263490880E079A1796E
:1044100040EA012000B25F490880607A217A40EAD0
:10442000012000B25E490880E07AA17A40EA0120CA
:1044300000B25A490880A078252805D160792179F1
:1044400040EA01205C490880A07810287DD12179BC
:10445000090209B2627941EA020011F04BFB41EC1A
:10446000190B9FED560B53EC102B11F0D1FA41ECC8
:10447000180B11F093FB53494865A179090209B261
:10448000E27941EA020011F035FB41EC190B9FED96
:104490004B0B53EC102B11F0BBFA41EC180B11F045
:1044A0007DFB4849C865217A090209B2627A41EA6E
:1044B000020011F01FFB41EC190B9FED400B53EC78
:1044C000102B11F0A5FA41EC180B11F067FB3D49D8
:1044D0008865A17A090209B2E27A41EA020011F084
:1044E00009FB41EC190B9FED350B53EC102B11F030
:1044F0008FFA41EC180B11F051FB32494866217BD1
:10450000090209B2627B41EA020011F0F3FA41ECC0
:10451000190B9FED2A0B53EC102B11F079FA41EC9B
:10452000180B11F03BFB01462648C166A17B09022E
:1045300009B2E27B41EA020011F0DCFA41EC190B0E
:104540009FED1E0B53EC102B00E07FE011F060FAA2
:1045500041EC180B11F022FB01461A488166217CC0
:10456000090209B2627C41EA020011F0C3FA41EC8F
:10457000190B9FED120B53EC102B11F049FA41EC83
:10458000180B21E0042B0020480700200000000049
:104590005E04002062040020600400206604002005
:1045A000640400208F040020C80400209C330020F5
:1045B000E10500204A2B00206E040020FCA9F1D266
:1045C0004D62503F7C28002011F0E8FAFE49486710
:1045D000A17C090209B2E27C41EA020011F08AFAE8
:1045E00041EC190B1FED0B0B53EC102B11F010FAD3
:1045F00041EC180B11F0D2FA0146F348C167217D56
:10460000090209B2627D41EA020011F073FA41EC3D
:10461000190B1FED160B53EC102B11F0F9F941ECAF
:10462000180B11F0BBFA0146E7488167E74880782C
:1046300038B90120E5498870A078E5490870E54857
:104640000570FCF767F80120E3490880A07811287D
:104650007DD12179090209B2627941EA020011F0A3
:1046600049FA41EC190B1FED2B0B53EC102B11F0F9
:10467000CFF941EC180B11F091FAD8494865A179AE
:10468000090209B2E27941EA020011F033FA41EC81
:10469000190B1FED360B53EC102B11F0B9F941EC4F
:1046A000180B11F07BFACD49C865217A090209B2CD
:1046B000627A41EA020011F01DFA41EC190B1FED7C
:1046C000410B53EC102B11F0A3F941EC180B11F036
:1046D00065FAC2498865A17A090209B2E27A41EA1B
:1046E000020011F007FA41EC190B1FED4C0B53ECD3
:1046F000102B11F08DF941EC180B11F04FFAB7495E
:104700004866217B090209B2627B41EA020011F08E
:10471000F1F941EC190B1FED570B53EC102B11F075
:1047200077F941EC180B11F039FA0146AB48C16634
:10473000A17B090209B2E27B41EA020011F0DAF939
:1047400041EC190B1FED630B53EC102B00E05CE008
:1047500011F05EF941EC180B11F020FA01469F4868
:104760008166217C090209B2627C41EA020011F0F3
:10477000C1F941EC190B1FED6F0B53EC102B11F02D
:1047800047F941EC180B11F009FA94494867A17CEC
:10479000090209B2E27C41EA020011F0ABF941ECF6
:1047A000190B1FED7A0B53EC102B11F031F941EC82
:1047B000180B11F0F3F901468848C167217D090201
:1047C00009B2627D41EA020011F094F941EC190B43
:1047D0001FED860B53EC102B11F01AF941EC180B5E
:1047E00011F0DCF901467D4881677848807838B956
:1047F000012076498870A078754908707548057061
:10480000FBF788FF012074490880A07812287CD12A
:104810002179090209B2627941EA020011F06AF9CC
:1048200041EC190B1FED9B0B53EC102B11F0F0F822
:1048300041EC180B11F0B2F969490866A179090237
:1048400009B2E27941EA020011F054F941EC190B86
:104850001FEDA60B53EC102B11F0DAF841EC180BFE
:1048600011F09CF95E498866217A090209B2627AE0
:1048700041EA020011F03EF941EC190B1FEDB10BBA
:1048800053EC102B11F0C4F841EC180B11F086F921
:1048900053494866A17A090209B2E27A41EA020064
:1048A00011F028F941EC190B1FEDBC0B53EC102B48
:1048B00011F0AEF841EC180B11F070F94849086797
:1048C000217B090209B2627B41EA020011F012F970
:1048D00041EC190B1FEDC70B53EC102B11F098F89E
:1048E00041EC180B11F05AF93D498867A17B090288
:1048F00009B2E27B41EA020011F0FCF841EC190B2D
:104900001FEDD20B53EC102B00E05CE011F080F8AF
:1049100041EC180B11F042F931494867217C09023A
:1049200009B2627C41EA020011F0E4F841EC190B93
:104930001FEDDE0B53EC102B11F06AF841EC180B55
:1049400011F02CF92649C1F88000A17C090209B2B6
:10495000E27C41EA020011F0CDF841EC190B1FEDA9
:10496000E90B53EC102B11F053F841EC180B11F03C
:1049700015F91B49C1F88800217D090209B2627D41
:1049800041EA020011F0B6F841EC190B1FEDF50BEE
:1049900053EC102B11F03CF841EC180B11F0FEF821
:1049A0000F49C1F884000948807838B901200749C7
:1049B0008870A0780649087006480570FBF7AAFEC3
:1049C0000120054908800DE07C280020042B0020F0
:1049D0005C0400205D0400206804002040290020C1
:1049E00048070020A078132854D12179090209B280
:1049F000627941EA020011F07DF841EC190B9FED5C
:104A0000D60B53EC102B11F003F841EC180B11F0FE
:104A1000C5F8D349C1F89000A179090209B2E27939
:104A200041EA020011F066F841EC190B9FEDCA0B48
:104A300053EC102B10F0ECFF41EC180B11F0AEF81A
:104A4000C749C1F89800217A090209B2627A41EA9D
:104A5000020011F04FF841EC190B9FEDBF0B53EC26
:104A6000102B10F0D5FF41EC180B11F097F8BC4952
:104A7000C1F89400BB48807838B90120B9498870E2
:104A8000A078B9490870B9480570FBF743FE0120CA
:104A9000B7490880A07814280AD1B248807838B97C
:104AA0000120B0498870A078AF490870AF48057000
:104AB000A07815280AD1AB48807838B90120A949D7
:104AC0008870A078A8490870A848057000BF05E460
:104AD00010B50446A748007838B9AA2C05D10120A2
:104AE000A4490870A44804705DE0A2480078012839
:104AF00007D1AF2C05D102209E4908709E48447012
:104B000051E09C480078022807D1F12C05DA0320F7
:104B1000984908709848847045E0964800780328C2
:104B20000CD1322C0ADA0420924908709248C470E1
:104B30009248047000209249087034E08D48007853
:104B4000042819D18D480078002815DD8B4800789D
:104B5000401E8A4908708A48007889490978491CAA
:104B6000874A1170001D84490C5484480078D0B9DC
:104B700005208049087016E07E48007805280FD18E
:104B800000207C4908707E480078001D7A490C544A
:104B90007B480078401DC1B27748FFF781FB02E0F7
:104BA00000207449087010BD10B50446754800789F
:104BB00038B9AA2C05D101207249087072480470D6
:104BC0005DE070480078012807D1AF2C05D10220A4
:104BD0006C4908706C48447051E06A4800780228BB
:104BE00007D1F12C05DA0320664908706648847005
:104BF00045E06448007803280CD1322C0ADA0420FE
:104C0000604908706048C4706048047000206049C2
:104C1000087034E05B480078042819D15B480078BC
:104C2000002815DD59480078401E5849087058483A
:104C3000007857490978491C554A1170001D52499E
:104C40000C5452480078D0B905204E49087016E03F
:104C50004C48007805280FD100204A4908704C487C
:104C60000078001D48490C5449480078401DC1B2E5
:104C70004548FFF715FB02E000204249087010BDCF
:104C800010B504464348007838B9AA2C05D1012054
:104C900040490870404804705DE03E4800780128B3
:104CA00007D1AF2C05D102203A4908703A48447028
:104CB00051E038480078022807D1F12C05DA0320AA
:104CC000344908703448847045E03248007803283D
:104CD0000CD1322C0ADA04202E4908702E48C470F8
:104CE0002E48047000202E49087034E029480078CE
:104CF000042819D129480078002815DD27480078B4
:104D0000401E264908702648007825490978491C24
:104D1000234A1170001D20490C5420480078D0B956
:104D200005201C49087016E01A48007805280FD1A4
:104D30000020184908701A480078001D16490C54C4
:104D400017480078401DC1B21348FFF7A9FA02E0E6
:104D500000201049087010BDFCA9F1D24D62503FEF
:104D600048070020042B00205C0400205D04002084
:104D7000680400207C0400205A2B00207A040020C4
:104D80007B0400207F0400208C2B00207D04002069
:104D90007E04002082040020BE2B0020800400201E
:104DA000810400200246002007E0FE4B1B5632F82B
:104DB000133021F81030431CD8B20828F5DB7047B7
:104DC000F949D1ED020A9FEDF91AF4EEC10AF1EEAC
:104DD00010FA7DD240F24C41884247DAF449B1F9E9
:104DE0000010491C01B3F3490978E9B1F049B1F960
:104DF000001000EE901AF8EEE00A9FEDEF1A41EE77
:104E0000000AFDEEE00A10EE901A09B2E84A11809D
:104E10001146B1F90010B1F5C87F05DD0021E54A62
:104E20001170491EE24A1180E2490978002965D1D2
:104E3000E249098840F26C72914207DDDF494988F6
:104E4000914203DD0321DE4A117057E0DB494988B6
:104E500040F26C72914251DDD849098840F24C42CF
:104E600091424BDA0121D64A117047E0CE49D1ED8B
:104E7000030A9FEDD41AF4EEC10AF1EE10FA07DC32
:104E8000CF49097803292DD140F26C71884229DD80
:104E9000C749B1F90010491C19B3C649097801BBCB
:104EA000C349B1F9001000EE901AF8EEE00A9FED48
:104EB000C61A41EE000AFDEEE00A10EE901A09B2A1
:104EC000BB4A11801146B1F9001040F2DC5200E0FB
:104ED00011E0914212DD0121B64A1170891EB44AD7
:104EE00011800BE0B249B1F90010491C31B9002121
:104EF000AF4A118002E00021AD4A118070473FB5F2
:104F0000F0EE401A0546AE480078012808D1AF49B6
:104F10002846FFF747FF40F21360AD49088041E0A3
:104F2000A7480078022808D1A849AA48FFF73AFF05
:104F300040F25740A649088034E0A1480078032891
:104F400030D1984890F90000A24931F810009F49EB
:104F50000880944890F901009E4931F810009B495F
:104F60004880904890F9020035F810008880084683
:104F70008088B0F5AF6F09DD0846808840F2DC51CB
:104F8000884203DA40F2D25090498880854890F9EF
:104F90000300904931F810008C49C88040F2CF706E
:104FA0008B490880002420E2884830F8140040F63D
:104FB000C411884205DC854830F81400B0F5FA7F4A
:104FC00007DA0120844908550020844921F814009B
:104FD00012E0824830F81400401C804921F8140087
:104FE000084630F81400C82806DD4FF4FA6021F8AE
:104FF000140000207849085571480078012807D02E
:105000006F480078022803D06D48007803287DD1CE
:105010007148005D00287AD16C4830F8140000B265
:105020002DF814006E4830F914006E4931F914104F
:1050300088426DDD6C48005DF0BB3DF914006949A4
:1050400031F91410401A00EE100AB8EEC01A644884
:1050500030F91400634931F91410401A00EE100AB7
:10506000B8EEC00AC1EE000A9FED571A9FED5F0A25
:1050700010EE810ABDEEC00A10EE100A00B210F563
:10508000FA7F01DA5A484FE03DF91400554931F9E9
:105090001410401A00EE100AB8EEC01A504830F949
:1050A0001400504931F91410401A00EE100AB8EEFD
:1050B000C00AC1EE000A00E03AE09FED431A9FEDFE
:1050C0004B0A10EE810ABDEEC00A10EE100A00B2C3
:1050D000B0F5FA7F02DD4FF4FA7025E03DF91400D7
:1050E000404931F91410401A00EE100AB8EEC01A07
:1050F0003B4830F914003B4931F91410401A00EED6
:10510000100AB8EEC00AC1EE000A02E0BAE0B5E04B
:10511000B1E09FED2D1A9FED350A10EE810ABDEE2C
:10512000C00A10EE100A00B2324921F81400A5E0BE
:105130003DF914002B4931F91410401A00EE100A01
:10514000B8EEC01A264830F91400264931F9141077
:10515000401A00EE100AB8EEC00AC1EE000A9FED38
:105160001A1A9FED220A10EE810ABDEEC00A10EE57
:10517000100A00B210F5FA7F01DA1D4875E03DF91A
:105180001400184931F91410401A00EE100AB8EE54
:10519000C01A134830F91400124931F91410401A9A
:1051A0002AE0000086040020202C00200000C8C354
:1051B000CA040020C804002000401C468C33002094
:1051C0008F0400200000C84300007A44902C002087
:1051D000840400204A2B002090040020802C002012
:1051E0009A040020AA040020BA0400200000FA4318
:1051F0000CFEFFFFF02B002000EE100AB8EEC00AF4
:10520000C1EE000A1FED101A1FED080A10EE810A08
:10521000BDEEC00A10EE100A00B2B0F5FA7F02DD52
:105220004FF4FA7021E03DF91400824931F914106D
:10523000401A00EE100AB8EEC01A7F4830F9140088
:105240007C4931F91410401A00EE100AB8EEC00A79
:10525000C1EE000A1FED241A1FED1C0A10EE810A90
:10526000BDEEC00A10EE100A00B2404200B273490F
:1052700021F8140002E000207149087000207149F3
:10528000087002E001206F4908709FED6F0A21EE5F
:10529000800A6E4880ED000A3DF9140000EE100A05
:1052A000B8EEC00A6A4800EB8400D0ED000A30EE88
:1052B000600AB5EEC00AF1EE10FA0DDD3DF91400FA
:1052C00000EE100AB8EEC00A614800EB8400D0ED91
:1052D000000A30EE600A0EE03DF9140000EE100AFC
:1052E000B8EEC00A5A4800EB8400D0ED000A30EE58
:1052F000600AB1EE400ADFED570AB4EEE00AF1EEC3
:1053000010FA1DD24D4830F9140000EE100AB8EE24
:10531000C00A4F4800EB8400D0ED000A70EE600A2E
:105320004B4800EB840090ED000A484890ED001ACD
:1053300001EE200A464800EB840080ED000A20E0E0
:105340003E4830F9140000EE100AB8EEC00A40489A
:1053500000EB8400D0ED000A70EE600A3C4800EBE0
:10536000840090ED000A394890ED001AB6EE002A4C
:1053700021EE021A01EE200A354800EB840080ED90
:10538000000A3548007838B92D48007820B99FEDDB
:10539000330A2F4880ED020A2D4800EB840090ED7F
:1053A000000A2F4800EB8400D0ED000A30EE600ABE
:1053B0002C4800EB840080ED000A254800EB8400B7
:1053C00090ED000A264800EB840080ED000A1B489F
:1053D00030F9140000EE100AB8EEC00A224800EBC3
:1053E000840080ED000A601CC4B2082CFFF6DCAD1E
:1053F000E888B0EE610AFFF7E3FC1C480088401C17
:1054000080B21A490880C82803DD002008801249AC
:1054100008703FBD10490978032903D10021134AC0
:10542000118070470C4908700021104A118000BF9C
:10543000F7E70000AA0400209A040020F02B0020C7
:10544000C80400208E04002034337B42C4040020B2
:10545000202C00200000C8428F0400200000FAC366
:10546000402C0020602C0020002C002098040020FC
:105470000DF04ABC704700207047002070470020A4
:1054800070470020704700207047002070470020C0
:1054900070470020704700207047002070470020B0
:1054A00070470020704700207047002070470DF0C3
:1054B00052BC704700207047002070470DF096BA2C
:1054C0007047000010B50CF095FC01200CF09DFC1D
:1054D00010BD70B5024600200AE0145C864B1D78B2
:1054E0001B785B1C844E3370844B5C55431CD8B2D4
:1054F0008842F2DB70BD10B57F480078804909789A
:1055000088425BDD7C4800787D490978401A3F2855
:105510001BDB00207B4908703F207B49087000207E
:105520000BE077490A780978491C754B1970734963
:105530008A5C754B411C5A54C8B23F28F1DB4022AB
:10554000714900200DF0EDFC9FE06E480078401C92
:105550006C490870084600786C4909788842F3D194
:105560000020684908706448007865490978401A45
:1055700065490870002015E05F490978604A127893
:10558000891A814208DD5E49097801445B4A525C10
:105590005D4B411C5A5403E000225B4B411C5A54A2
:1055A000411CC8B23F28E7DB5348007854490870D3
:1055B0004022554900200DF0B4FC66E04E480078CA
:1055C0004F490978884260DA4D480078C0F580700C
:1055D0004949097808443F281BDB002049490870E5
:1055E0003F204949087000200BE045490A780978B6
:1055F000491C434B197041498A5C434B411C5A5426
:10560000C8B23F28F1DB40223F4900200DF089FC61
:105610003BE03C480078401C3A4908700846007856
:105620003A490978884230D1002036490870344818
:105630000078404230490978084433490870002016
:1056400018E02F490978C1F580712B4A127811446E
:10565000814209DD2A4909780144C9B2274A525CCE
:10566000294B411C5A5403E00022274B411C5A5439
:10567000411CC8B23F28E4DB1F480078204908706D
:105680004022214900200DF04CFC10BD10B504460D
:10569000012C02D0032C11D10EE059B923B1012BFA
:1056A00005D0022B04D100E000BF402010BD00BF98
:1056B00000BF00BF00BF01E00120F7E700BF0020EE
:1056C000F4E72DE9F0470646884614469946089FB8
:1056D000022E02D0032E0CD10AE0012504E0605D09
:1056E000FFF7F6F9681CC5B22078A842F7DA00E0A7
:1056F00000BF00BFBDE8F087D7040020C02F002006
:10570000D6040020D8040020C0300020D50400209A
:1057100010B5054810F0CEF8022101EB4000C0B2F0
:1057200010BD024870470000043100201D310020E8
:105730009FEDFA2A20EE822A62EE012AB7EE003AA5
:1057400083EE222AF7EE002A32EE222AB7EE003A42
:10575000C3EE022A90ED032A31EEC22A90ED003A00
:1057600032EE433A90ED002A02EE832A80ED002AC1
:1057700090ED032A31EEC22A22EE022A80ED012AA0
:1057800090ED012AD0ED002A90ED003A02EE832A36
:10579000B5EEC02AF1EE10FA02D1DFEDE12A0DE0FC
:1057A00090ED002A22EE023A90ED012AD0ED002A77
:1057B000D0ED003A02EEA32AC3EE022AF5EEC02A8B
:1057C000F1EE10FA02D2DFEDD62A45E090ED012A83
:1057D000D0ED002A90ED003A02EE832AB5EEC02A01
:1057E000F1EE10FA02D1DFEDCE2A0DE090ED002AA5
:1057F00022EE023A90ED012AD0ED002AD0ED003AD7
:1058000002EEA32AC3EE022AB7EE002AF4EEC22A61
:10581000F1EE10FA02DDF7EE002A1DE090ED012A0C
:10582000D0ED002A90ED003A02EE832AB5EEC02AB0
:10583000F1EE10FA02D1DFEDBA2A0DE090ED002A68
:1058400022EE023A90ED012AD0ED002AD0ED003A86
:1058500002EEA32AC3EE022AC0ED022A90ED022A2C
:1058600022EE002ADFEDAD2A22EE222A22EE012AC4
:10587000F7EE002A82EE823AB7EE002A33EE022AD1
:10588000B7EE003AC3EE022A90ED032A31EEC23A97
:1058900090ED032A02EE832A80ED032A704730B58B
:1058A0000C4615886D1CADB21580A54201DB0025A4
:1058B0001580158800EB8505D5ED000A158800EBED
:1058C000850585ED000A70EE601A01EE104AB8EE0B
:1058D000412A81EE821AD3ED001A31EE211A83EDAE
:1058E000001A93ED001AD3ED001A70EE611A9FEDC5
:1058F0008D2A02EE211A83ED001A30BD2DE9F04702
:1059000004460E469C460027B94633461088401C84
:1059100080B21080984201DB00201080118810882E
:1059200044F820C0581E884222DD19E054F82100B6
:1059300000EE900AB8EEE00A481C54F8200044F843
:105940002100FDEEC00A10EE900A01F1010A44F8B0
:105950002A000127481C81B2581E884200D106E067
:1059600054F821A0481C54F820008245DEDC00BF1A
:10597000002923DD1AE054F8210000EE900AF8EE29
:10598000E00AB0EE600A481E54F8200044F82100F6
:10599000FDEEC00A10EE900AA1F1010A44F82A00B7
:1059A0004FF0FF37481E81B201B906E054F821A03C
:1059B000481E54F820008245DDDB00BF108820B966
:1059C000012F02D1581E10800CE0B2F800A0581E22
:1059D000824504D1781C10B90020108002E01088A4
:1059E000C01B108000EE903AF8EE600AB5EE001A87
:1059F00060EE810AFCEEE00A10EE900A1FFA80F8D1
:105A0000002506E008EB050054F820008144681CDE
:105A100085B203EBD37AB5EB6A0FF3DB9A4603EB5F
:105A2000DA70401099FBF0F0BDE8F08770B50446DD
:105A30000D461646D4ED020A60EEA00A94ED011A56
:105A4000D4ED011A41EE210AB0EE600AFCF782FEA5
:105A5000354880ED000AD4ED020A60EEA00A94ED0C
:105A6000001AD4ED001A41EE210AB0EE600AFCF7EC
:105A700071FE2E4880ED000A94ED020AB5EEC00AD0
:105A8000F1EE10FA02D24FF0FF3000E00120284979
:105A9000087095ED000A2448D0ED000A60EE200A57
:105AA00094ED001A084690F9000000EE100AB8EED6
:105AB000C00A21EE000A95ED021A40EE410AC6ED39
:105AC000000A084690F9000000EE100AB8EEC00A7D
:105AD0001648D0ED000A20EE200AD5ED010A20EE8E
